:020000021000EC
:10B000000080002021E2010061E2010063E2010012
:10B010000000000000000000000000000000000030
:10B0200000000000000000000000000065E20100D8
:10B03000000000000000000067E2010069E201007A
:10B040006BE201006BE2010095E801006BE2010098
:10B050006BE20100000000006BE201006BE2010006
:10B060006BE201006BE201006BE201006BE20100A8
:10B070006BE201006BE201006BE201006BE2010098
:10B080006BE20100B9E201006BE201006BE201003A
:10B090006BE201006BE201006BE201006BE2010078
:10B0A0006BE201006BE20100000000000000000004
:10B0B0000000000000000000000000000000000090
:10B0C000054B0648033310B51B1A062B03D9044B56
:10B0D000002B00D0984710BD3C2100203C210020CF
:10B0E000000000000648074910B5091A8910CB0F67
:10B0F0005918491003D0044B002B00D0984710BDBD
:10B100003C2100203C2100200000000010B5074C2D
:10B110002378002B09D1FFF7D3FF054B002B02D07A
:10B12000044800E000BF0123237010BD3C21002033
:10B1300000000000784C0200094B10B5002B03D032
:10B140000849094800E000BF08480368002B02D105
:10B15000FFF7C8FF10BD064B002BF9D09847F7E763
:10B160000000000040210020784C0200382100201F
:10B1700000000000164B002B00D1144B9D464022CE
:10B1800092029A1A924600218B460F461348144A9F
:10B19000121A05F01BFE0F4B002B00D098470E4BE8
:10B1A000002B00D098470020002104000D000D481E
:10B1B000002802D00C4800E000BF05F099FD2000F7
:10B1C000290003F02FFC05F06DFDC04600000800CB
:10B1D0000080002000000000000000003C21002052
:10B1E000D8240020000000000000000010B504007A
:10B1F00001F0F8FBC6235B00E0580433E358143039
:10B20000C01A142103F046FD080010BD08B4034B1A
:10B210009C46034BC01A08BC6047C046EDB1010014
:10B220007801000010B5040001F0DCFBC8235B00CE
:10B23000E058043BE358984204D020189530FF3082
:10B24000007801E00120404210BD000008B4034B2B
:10B250009C46034BC01A08BC6047C04625B201009B
:10B260007801000070B50400C82501F0BBFBC623BF
:10B270006D005B006059E358984209D001301421F9
:10B2800003F008FD615161189531FF31087801E044
:10B290000120404270BD000008B4034B9C46034BA4
:10B2A000C01A08BC6047C04665B2010078010000C2
:10B2B00010B501F0C1FB10BD70B504000D0001F028
:10B2C00091FB87239B00E01801F006FA0026B042AC
:10B2D0000FD0D4214900635801365A1CE318AD330E
:10B2E000FF3362501D70142A03D123682000DB6EE7
:10B2F0009847300070BD000008B4034B9C46034BD8
:10B30000C01A08BC6047C046B9B20100780100000D
:10B31000F7B5040001F020FD2300FA22002579335F
:10B32000FF3392005D609A603B4B26001A000832A2
:10B3300022601A00883262601A00A032A2602200E5
:10B34000C136FF36C833FC32D3673000334901F0D1
:10B35000D0FD2000324FC9303900324AFF3001F0B1
:10B36000E3F92300E133FF330193042214232E4930
:10B37000019801F085F981239B003900E0182B4AE0
:10B3800001F0D2F987239B00E018102214232849EA
:10B3900001F076F990239B00264A3900E01801F06D
:10B3A000C3F9D4235B00E550183BE550043BE5505E
:10B3B000043BE550204B310020001C6001F07FFC75
:10B3C0002100CD31FF31200001F079FC300001F087
:10B3D000A5F80100200001F011FB2100E53120005B
:10B3E000FF3101F06CFC82239B00E118200001F08A
:10B3F00066FC124A2900019801F080F988239B001D
:10B40000E118200001F05BFC91239B002000E11873
:10B4100001F055FC2000FEBD3C3902008C380200D2
:10B42000B6380200B1380200BB380200E038020032
:10B43000FA3802001F39020058210020A5B401008B
:10B440000FB410B5029801F019FB10BC08BC04B091
:10B45000184710B5040002F009FFC4235B00E3584D
:10B460006433984203D2200001F0BCFA03E0236861
:10B470002000DB6E984710BDF8B5C62705000C000C
:10B480008E187F00B4420CD0EB591421581C03F0E5
:10B4900001FCE951691823789531FF310B700134B3
:10B4A000F0E7F8BD094B70B51D680B680C0008008B
:10B4B000DB689847236806001B6920009847310025
:10B4C00002002800FFF7D8FF70BDC04658210020B9
:10B4D00070B5D4256D0042590400002A12D0010035
:10B4E0008723AD319B00C018D2B2FF3101F0B1F813
:10B4F00002F0BCFEC4235B00E05000232000635137
:10B5000001F070FA70BD000008B4034B9C46034B79
:10B51000C01A08BC6047C046D1B4010078010000E1
:10B52000164B10B51A00083202601A0088324260C9
:10B530001A00A03282600200C833FC32D367902325
:10B540009B000400C01801F0E1F887239B00E0187D
:10B5500001F068F881239B00E01801F0D7F8200083
:10B56000E130FF3001F05EF82000C930FF3001F01B
:10B57000CDF8200001F0A8FB200010BD3C390200EE
:10B5800010B50400FFF7CCFF200003F05FFA2000A5
:10B5900010BDF0B5040091B00F000092616916AAC9
:10B5A000A67C108817AA15889C464A78022E0AD0D5
:10B5B000032E03D0012E09D17E1B06E0009B5610FE
:10B5C0009E1B33B200936E10BE1B37B2FD4200D5F6
:10B5D000F2E0E51DED7FAF4200DDEDE0009BDA42D9
:10B5E00000D5E9E025000835ED7FAB4200DDE3E062
:10B5F000013A8B78D21001320793D3B206936B468F
:10B600001B8BCA780B93009B9200DB100D93131DCC
:10B610000F93634602931B180E9300230393029B20
:10B620000E9A934200D1C7E01B78079A9A4200D93C
:10B63000BEE062690992079A9B1ADBB2099A9B00E5
:10B64000D318D8791A7959790490FF2A02D1FF29A1
:10B6500000D1A7E020000830C07F009D854200DDBA
:10B66000A0E00398C01980B2089068462025405F8A
:10B67000049DC54200D595E0E51DED7FA84200DDA3
:10B6800090E007209B790593009B03400193059B65
:10B69000002B03D1049B0B984343059300260F9B7B
:10B6A000120259188A1893B20C93059AB3B29A42AF
:10B6B00078D90699300003F0F1FA089B069918181A
:10B6C000E31DDB7F85B230000A9303F0CDFB0D9BB9
:10B6D0000A9ACB185343EB1819B2002960DB238D6B
:10B6E00099425DDA2DB2002D5ADB954258DA0C9A58
:10B6F000099B9B189A5DE37C012B0DD0002B15D084
:10B70000022B1FD1A368019D581803789C46130093
:10B71000AB4065466B4014E0A368019D5818037860
:10B720009C461300AB4065462B430AE0A368150016
:10B730005B1818788446019885406046A8431870C5
:10B7400000E00370E31DDB7F208DC01A814225DA03
:10B75000E07C01280DD0002815D002281ED1CB187E
:10B76000A1680198CB180821091A0A4119784A40A2
:10B7700013E0CB18A1680198CB180821091A0A41D7
:10B7800019780A4309E0CB18A1680198CB18082161
:10B79000091A0A41197891430A001A7002F09AFDB9
:10B7A000013682E7049A039B94466344DBB2039319
:10B7B000029B0133029332E711B0F0BDF0B50024D3
:10B7C00045690F4823008446AF78013A92B262453A
:10B7D0000FD08E5CF01B80002818C0791B189BB21C
:10B7E0000A2EF2D1201C9C4200D2181C84B20023E5
:10B7F000EBE7181CA34200D2201C80B2F0BDC0466B
:10B80000FFFF000010B50021028D806805F0DEFA10
:10B8100010BD000043B202000C49002B02DB0023E4
:10B820000B7010E00B780870C22B0DD0C32B08D022
:10B830000020822B08D1AC3A100042425041C00196
:10B8400002E0C0231A4310007047C0465C2100206C
:10B85000F8B5068B04000D00002E38D00D2936D027
:10B86000428B838BC18B964210D98B4210D2036AD4
:10B8700028009E18FFF7CEFF3070638B013363837F
:10B880000A2D24D1A38B0133A38320E08B4201D363
:10B89000013BA383002399B291420FD2206AC75C77
:10B8A00001330A2FF7D1013189B2002906D0521A8B
:10B8B00092B26283411805F080FA03E0964201D803
:10B8C00000236383236829001B6820009847012018
:10B8D000F8BDF8B5856807006E1CB6B2300005F0FB
:10B8E00049FA041E01D1386818E032000100002333
:10B8F000380003F07CF826000027ADB26519AE428F
:10B9000009D03078FFF786FF002802D07B1CE05575
:10B910009FB20136F3E700232000E355F8BD000095
:10B92000F0B58BB003924269050054780591A2B23C
:10B93000190007A8049203F02DF807A8FFF7C9FF24
:10B94000070007A802F0BCFFAB7C0026032B0FD139
:10B950003100BB5D002B08D00A3B1A005042504119
:10B9600001360B1899B2B6B2F3E74C436410A6B295
:10B970001549380006F0C6F80400039B9E1BB6B2BA
:10B98000002C1BD0200006F0A3F883B21A0021007F
:10B9900028000393FFF712FF039B32B2019000933C
:10B9A000059923002800FFF7F4FD0749002006F061
:10B9B000A9F8049B04009B199EB2E1E7380005F04A
:10B9C000E3F90BB0F0BDC0469548020070B5040025
:10B9D0000F202056002807DB012102F07DFC0F20FC
:10B9E0000121205602F096FC207C012102F074FC1B
:10B9F000607C012102F070FC0121022002F06CFC4D
:10BA00000121080002F068FC207C002102F082FC89
:10BA10000121607C02F07EFC144D280000F0F0FB58
:10BA2000134B280019685A689B6800F005FC0F202A
:10BA30002056002817DB012102F04EFC0F200121C7
:10BA4000205602F067FC052002F028FC0F200021A0
:10BA5000205602F05FFC0A2002F020FC0F2001219A
:10BA6000205602F057FC012070BDC046482400203B
:10BA70002C24002070B504000D00007C002102F091
:10BA800049FC607C002102F045FC2900034800F0DD
:10BA9000D9FB607C012102F03DFC70BD48240020F0
:10BAA00010B50400A121FFF7E5FFC8212000FFF732
:10BAB000E1FF10BD10B50400AE21FFF7DBFF200051
:10BAC000D521FFF7D7FF20008021FFF7D3FF20000B
:10BAD000A821FFF7CFFF23000833D97F20000139C9
:10BAE000C9B2FFF7C7FF2000D321FFF7C3FF200033
:10BAF0000021FFF7BFFF20004021FFF7BBFF200020
:10BB00008D21FFF7B7FF20001421FFF7B3FF2000BE
:10BB10002021FFF7AFFF20000021FFF7ABFF20003F
:10BB2000A121FFF7A7FF2000C821FFF7A3FF2000F6
:10BB3000DA21FFF79FFF20001221FFF79BFF200073
:10BB40008121FFF797FF2000CF21FFF793FF20000F
:10BB5000D921FFF78FFF20001F21FFF78BFF200067
:10BB6000DB21FFF787FF20004021FFF783FF200044
:10BB7000A421FFF77FFF2000A621FFF77BFF200015
:10BB80000221FFF777FFAF212000FFF773FF10BD01
:10BB9000F7B5050016000193007C0F00012102F0AB
:10BBA000B9FB687C002102F0B5FB3400019BF3185F
:10BBB0009C4206DA395D0548013400F043FBA4B22B
:10BBC000F4E7687C012102F0A5FBF7BD48240020C2
:10BBD00010B504002121FFF74DFF20000021FFF7E1
:10BBE00049FFE31DD97F20000139C9B2FFF742FFA9
:10BBF00020002221FFF73EFF20000021FFF73AFF3F
:10BC000023000833D97F2000C9080139C9B2FFF7E2
:10BC100031FF238D0022A1682000FFF7B9FF10BD7E
:10BC200070B550260500002476422B000833DB7FD8
:10BC3000DB089C421AD231002143C9B22800FFF729
:10BC400019FF00212800FFF715FF12212800FFF738
:10BC500011FF2200EB1DDB7FA9685A432800013445
:10BC6000FFF796FFE4B202F035FBDEE770BD07B5E3
:10BC7000831DDA7F002A05D1FF2300921900FFF708
:10BC8000A7FF05E00022FF2300921900FFF7C8FF7D
:10BC900007BD10B50400FFF7B5FD2000FFF7E7FF73
:10BCA00010BD000070B5C31DDA7F40210023914212
:10BCB0005B41821DD3770B490400FFF787FE051E09
:10BCC00001D100250BE0208D05F054F8A06000287C
:10BCD000F7D02000FFF7EEFE2000FFF7DAFF280084
:10BCE00070BDC04660AE0A0010B51D4B86B0196825
:10BCF0000A22684602F069FE1A4C2000FFF782FD16
:10BD0000194903A802F046FE002203AB11002000EF
:10BD1000FFF706FE03A802F0D3FD144903A802F0C2
:10BD200016FE03AB0A2200212000FFF7F9FD03A84D
:10BD300002F0C6FD0E4903A802F009FE03AB14226F
:10BD400000212000FFF7ECFD03A802F0B9FD200060
:10BD5000FFF78DFF684602F0B3FD06B010BDC04688
:10BD6000C0230020F02300201C2400202C3A0200D5
:10BD7000383A020010B5164B86B019680A22684698
:10BD800002F023FE134C2000FFF73CFD124903A8EC
:10BD900002F0DDFD002203AB11002000FFF7C0FD23
:10BDA00003A802F08DFD0D4903A802F0F3FD03ABDB
:10BDB00000221E212000FFF7B3FD03A802F080FD42
:10BDC0002000FFF754FF684602F07AFD06B010BD70
:10BDD000C0230020F0230020413A02001C24002050
:10BDE00010B5012802D1FFF7C5FF01E0FFF77CFF86
:10BDF00010BD000070B54B4C17222000072100F049
:10BE0000D7FA494D4949280002F03EFB00212000A5
:10BE100000F030FB0A220100280002F088FB280015
:10BE2000434902F031FB0121200000F023FB0A22EC
:10BE30000100280002F07BFB28003E4902F024FBB1
:10BE40000221200000F016FB0A220100280002F067
:10BE500072FB03222000110000F0AAFA0422200045
:10BE6000110000F0A5FA20003022052100F0A0FA10
:10BE700020008422082100F09BFA200008220921DA
:10BE800000F096FA200008220A2100F091FA11220F
:10BE900020000F2100F08CFA2800274902F0F4FA64
:10BEA0000F21200000F0E6FA02220100280002F033
:10BEB00042FB2800214902F0E7FA0121200000F0AE
:10BEC000F2FA02220100280002F035FB200077225E
:10BED000012100F082FA200000220B2100F07DFAFF
:10BEE00020002122022100F078FA200003220721FD
:10BEF00000F073FA200070220A2100F06EFA0D2281
:10BF00002000182100F054FA3021200000F0B2FA8D
:10BF100010220100280002F00EFB2800084902F060
:10BF2000B3FA70BDC423002064240020463A020006
:10BF30004D3A0200543A02005B3A0200673A0200AE
:10BF4000713A020070B5134C134D200000F0C4FA92
:10BF50006169124A124B8A1819601E00AA4203D85E
:10BF60000A22104802F011FB0F4C2000FFF7A0F945
:10BF700000280DD03168094BCB18AB4205D8200002
:10BF80007930FF300A2202F000FB0A2002F086F925
:10BF900070BDC046C4230020BE7FDC0BBFBDF0FFD8
:10BFA000BC230020642400206021002070B51648C6
:10BFB000FFF74FFA154C0420257802F0C1F94342EF
:10BFC0004341AB4204D9124A11784B424B411370A2
:10BFD000042002F0B5F943424341237002F046F9D0
:10BFE0000C4C2368C01A142806D902F03FF9084BFC
:10BFF00020601878FFF7F4FE0A2002F04FF9FFF7EF
:10C00000A1FF02F067F970BD6021002038240020F4
:10C0100028240020EC23002080221F4B120670B53C
:10C0200000241A6002221D4E9C601A710A21092305
:10C030003000FFF76DF91A4D1A492A00300004F05C
:10C04000FBFD1020184B194901225961591DC87771
:10C050001749184E19601E21D97301395C609C7410
:10C06000DA741C835C839C83DC831C62597430000B
:10C0700021001C7400F03FF9B4220F4B0F4C1E60DE
:10C080001A710F49200002F062FC2A000D492000BD
:10C0900004F0D2FD70BDC0462C2400206021002099
:10C0A0008020002021B50100F0230020B13A0200D9
:10C0B000243A0200B8230020C42300201C240020BE
:10C0C00096480200C1E8010010B51D4C1D49200032
:10C0D00000F097FC2000FFF7B3F9E1211A4C490268
:10C0E000200002F05EFA1949200002F0DFF9022177
:10C0F000042002F0F1F84022154CE31DDA7723000A
:10C10000203A0833DA7780235B0023852000FFF78D
:10C11000C9FD2000FFF7C4FC0023A3740D4B63612D
:10C120000D4B1878421C1A70FFF75AFE0B4802F0AC
:10C13000B5F802F09BF80A4B1860FFF75BFE10BDE4
:10C1400060210020B1380200642400207A3A020005
:10C15000F0230020B13A020028240020B80B000090
:10C16000EC23002070B5002504AC24780573A942A7
:10C1700005D10A4B0A4A23210A4804F065FD0160F3
:10C180000949920052589B0002715B588371A300C9
:10C190005B58856043710223C37170BD99450200ED
:10C1A0005C450200A745020014480200037B002BF7
:10C1B00004D1437383730361013303737047000039
:10C1C0001FB50191A02100240068C900D2B24450DB
:10C1D000012A07D0A24203D0032A05D1042202E09B
:10C1E000022200E006221343034A8350034B019AC4
:10C1F000C250012343501FBD540500002405000018
:10C2000010B50400FFF7D2FFA1222368A179D20064
:10C2100099506179064A2000995021790432995049
:10C22000044B19685A689B68FFF7CAFF10BDC046E7
:10C230000C0500003C2400201FB5FFF7C1FF05B02E
:10C2400000BD00000368074A99501A00FC32D1680B
:10C250000029FCD0A321C90058580023C0B2D360E4
:10C260007047C0461C05000007B58022074BD20569
:10C270001A6000229A6002321A7101230092044966
:10C28000D2180448FFF76EFF07BDC0463C240020CB
:10C29000003000404824002000280DD00138C0465E
:10C2A000C046C046C046C046C046C046C046C0465E
:10C2B000C046C046C046F1D1704710B504004142A7
:10C2C0004141162002F008F82100162002F022F861
:10C2D00010BD10B54078FFF7DFFF0121172002F0F5
:10C2E00019F810BD10B54078FFF7D6FF00211720D0
:10C2F00002F010F810BD10B504004270017001206A
:10C30000FFF7DBFF0121172001F0E6FF2000FFF718
:10C31000E0FF200010BD10B504000020FFF7CDFFA6
:10C320002000FFF7D6FF0120FFF7C7FF10BDF8B5CB
:10C3300005000F000824FFF7D5FF802630003840A5
:10C34000FFF7BBFF2800FFF7C4FF013C2800FFF701
:10C35000C9FF7608002CF1D10120FFF7AEFF2800BD
:10C36000FFF7B7FF162001F0EBFF04002800FFF7EE
:10C37000B9FFE0B244426041C0B2F8BD10B5FFF76A
:10C38000D6FF10BD70B504000D00FFF7ABFF200015
:10C39000FFF79FFF0020FFF790FF29002000FFF725
:10C3A000C6FF70BD10B501790068FFF7EBFF10BD47
:10C3B00070B504000E001500FFF7F4FF310020688F
:10C3C000FFF7DCFF29002068FFF7D8FF2068FFF7A0
:10C3D000A2FF0A2001F062FF70BD70B504001600D4
:10C3E0000D00FFF7DFFF17212068FFF7C7FF3100BF
:10C3F0002068FFF7C3FFA02120682943FFF7BEFF95
:10C400002068FFF788FF0A2001F048FF70BD012176
:10C4100010B5037900681943FFF7B4FF10BDF7B5F5
:10C42000040008268027002501912000FFF751FF16
:10C43000162001F085FFC0B2002800D03D43200047
:10C44000013EFFF74FFF7F08002EEED10198FFF766
:10C4500034FF2000FFF73DFF2000FFF743FF019B63
:10C46000002B02D02000FFF756FF0120FFF725FF29
:10C470002800FEBD70B504000D00FFF793FF2900F2
:10C480002068FFF77BFF2000FFF7C1FF0121206834
:10C49000FFF7C5FF05002068FFF73DFF0A2001F008
:10C4A000FDFE280070BD70B504000D00FFF77AFF97
:10C4B00018212068FFF762FF802120682943FFF7D9
:10C4C0005DFF2068FFF727FF0A2001F0E7FE2E211D
:10C4D0002000FFF7CFFF70BD70B50400FFF762FFCB
:10C4E00026212068FFF74AFF250020002600FFF7DD
:10C4F0008EFF14351A3600212068FFF790FF287050
:10C500000135B542F7D101212068FFF788FF206887
:10C51000FFF701FF70BD01608280704700687047BF
:10C520008088704729DF704728DF704703681868E4
:10C530000130431E9841C0B2704780235B0510B59F
:10C540001969006802F020FB04002000FFF7ECFFEF
:10C550001128FAD010BD70B51C0005000E00FFF7C1
:10C56000ECFFA408220031002868FFF7DBFF112848
:10C57000F8D070BD002210B500689A4203D28458EA
:10C580008C500432F9E710BD37B5062504002A00A7
:10C590000021684604F01AFC2A00201D694604F0B8
:10C5A000FDFB431E9841C0B23EBD10B504300622CB
:10C5B00004F003FC10BD10B504300622002104F085
:10C5C00005FC10BD10B504000160FFF7F4FF20006A
:10C5D00010BD807A7047C0687047007C70470020AB
:10C5E0007047C368585C704770B50D001100026851
:10C5F0000400D6691A00B0470123A374A369002B75
:10C6000002D021002800984770BD70B504000800D2
:10C610000D0005F05DFA2368C2B22900DB69200035
:10C62000984770BD054B10B5083304000360C0681F
:10C63000002801D004F0A8FB200010BD1046020025
:10C6400010B50400FFF7EEFF200002F0FFF9200014
:10C6500010BD10B50400807A031C904200D9131C51
:10C66000DAB22374E06804F0A8FB63690120002BB0
:10C6700004D01A68210012681800904710BD00000D
:10C68000F8B51D00040017000430104A00F09CF8B3
:10C690000F4B083323602B1C142D00D914230021C9
:10C6A0002000A372E16021746774A174E174616178
:10C6B0000C221830DEB204F089FB002D03D03000CC
:10C6C00004F058FBE0602000F8BDC04603280000DD
:10C6D00010460200407C7047C07C704710B5C274A1
:10C6E000531E9A4102239A1A06329A4013580C009C
:10C6F000002B02D001002000984710BD0B2902D862
:10C70000063189000A5070474161704770470069DF
:10C710007047007D70470369585C704710B504008E
:10C7200002F094F9200010BD70B51500A422040099
:10C730009201043000F048F8044B256108332800CA
:10C74000236005F0C5F92075200070BD4046020049
:10C75000704770477047002070477047704700204F
:10C76000704700207047002070470020704700206D
:10C77000704700207047002070470020704700205D
:10C7800070470020704700207047002070477047B6
:10C7900070477047704710B5040002F057F9200049
:10C7A00010BD0000064B0122083303606423838020
:10C7B00000238272C3800381C36003617047C04657
:10C7C0005C4602000161704710B50400FFF7A3FE4C
:10C7D000024A200013780133137010BD5C2400203E
:10C7E000014B18787047C0465C24002010B5C06823
:10C7F00003681B6A984710BD08B4024B9C46043876
:10C8000008BC6047EDC7010010B5C06803685B6AEB
:10C81000984710BD08B4024B9C46043808BC6047DA
:10C8200009C8010010B5C06803689B6A984710BD2D
:10C8300008B4024B9C46043808BC604725C8010078
:10C8400010B5C0680368DB6A984710BD08B4024B96
:10C850009C46043808BC604741C8010010B5C06858
:10C8600003681B6B984710BD08B4024B9C46083800
:10C8700008BC60475DC8010010B5C06803685B6B09
:10C88000984710BD08B4024B9C46083808BC604766
:10C8900079C8010010B5C06803689B6B984710BD4C
:10C8A00008B4024B9C46083808BC604795C8010094
:10C8B00010B5C0680468E46BA04710BD08B4024B13
:10C8C0009C46083808BC6047B1C8010010B5C06874
:10C8D00003681B6C984710BD08B4024B9C4608388F
:10C8E00008BC6047CDC8010010B5C06803685B6C28
:10C8F000984710BD08B4024B9C46083808BC6047F6
:10C90000E9C8010010B5C06803689B6C984710BD6A
:10C9100008B4024B9C46083808BC604705C90100B2
:10C9200010B5C0680368DB6C984710BD08B4024BB3
:10C930009C46083808BC604721C901000300FC334D
:10C940005B6F10B5002B02D05D30FF30984710BDF3
:10C950000300FC339B6F10B5002B02D05D30FF301D
:10C96000984710BD0100100010B504681A005D3131
:10C9700002AB1B78FF31646AA04710BD7047704757
:10C9800070B5050004005D35FF3511002800FC344A
:10C99000FFF70BFEE36E002B01D02800984770BD17
:10C9A0000300FC335D301B6FFF3010B50400002B1B
:10C9B00000D098472000FFF7FEFD10BD010010B524
:10C9C0005D311000FF311A00FFF788FE10BD010035
:10C9D00010B510005D311A0002AB1B78FF3100F07A
:10C9E0006BFA10BD10B5C0680368DB68984710BDCE
:10C9F00010B5C06803681B69984710BD8830016096
:10CA0000704798300160704770B50600A4363368EF
:10CA100004000D00002B05D100F024FA800004F082
:10CA2000A9F930602000A830037832689B009D503F
:10CA300003780133037070BD10B50400FFF7D2FF17
:10CA400020005D30FF30FFF79FFD10BD10B50400E2
:10CA5000FFF7C6FE800004F08DF923009C331860B8
:10CA6000103303600C334360243383602033C3608E
:10CA70000C3303610523A034237010BD3021002343
:10CA8000F0B5AFB002AA5218137003008C331968C6
:10CA9000040000291DD008A800F033FA08A800F00F
:10CAA00061FA022383429B415B4216AA14330500BC
:10CAB0001070537008A800F053FA1A260100522093
:10CAC00002AB2A00761BC01804F077F9F6B20125F4
:10CAD00001E01C260D00230088331968002924D0AA
:10CAE00008A800F00EFA08A800F03CFA431C070062
:10CAF000B3421ADA1F231A006A4316A817540622F3
:10CB0000022F00D8043A6B43C3185A7008A8079341
:10CB100000F026FA079B01003A00981C04F04DF93A
:10CB2000023E0135F61BEDB2F6B2230090331968D0
:10CB3000002915D01A79002A12D0022E10D9531CC0
:10CB4000B34201DB023EF2B21F20684316ABC2546F
:10CB50001818FF234370023004F02FF90135EDB2AD
:10CB6000230098331E68002E22D0300004F0B0FF5E
:10CB7000C0B21D2804D8302202AB9B18187004E004
:10CB800030211D2302AA52181370302202AB9B18C9
:10CB90001A7809238242804131214042181A02AB9F
:10CBA0005B181870322002AB3100C01804F005F990
:10CBB00027009C373B68002B02D12000FFF746FF7F
:10CBC000002307932300A0331B78079A9A4201DBC6
:10CBD00000271EE0079B3A689B009E583000FFF735
:10CBE0009FFC2C4B984205D1301E00D0301F211DD8
:10CBF000FFF78AFD079B0133E3E72300A4331B689B
:10CC0000BA00D6583000FFF78BFC224B984206D072
:10CC100001372300A8331B789F42EEDB07E0301E6C
:10CC200000D0301F2100083100F059F9F0E7002B47
:10CC30000BD021002931FF312000FFF7E5FE210054
:10CC40003531FF312000FFF7DFFE3022210002AB3B
:10CC50009B18A8311B780978E0685A1E9341026836
:10CC600004912100A4310968DBB203912100A031B5
:10CC70000978029121009C31096801910EA9009167
:10CC80009668290016AAB047E06803681B6D9847AC
:10CC90002FB0F0BD0328000070B506009C36336845
:10CCA00004000D00002B01D1FFF7D0FEA034237843
:10CCB00032689B009D5023780133237070BD10B5FE
:10CCC000FFF7EAFF10BD0000184B10B51A0008323C
:10CCD00002601A0004008833703283604260FFF7FC
:10CCE00087FE2300A4331868002801D004F04CF814
:10CCF00023009C331868002801D004F045F8200078
:10CD00003130FF3000F0B4F8601DFF30FFF78AFCCF
:10CD10002000D830FFF786FC2000B430FFF782FCFB
:10CD20002000103000F012FE200010BDE44602008A
:10CD300010B50400FFF7C8FF200001F087FE2000B7
:10CD400010BD07B56B46D9800633D83002221900D2
:10CD5000FFF77FFC07BD0000354BF7B51A0008321E
:10CD600002601A00883383600300040070321033BD
:10CD700042601800009301F02FFA230000252000E4
:10CD800088335D609D601D731D615D611D76DD6191
:10CD90001D6004331D772749AC3000F0AAF823004A
:10CDA000B43301930222132323490198FFF768FC4F
:10CDB000022320001A002149D830FFF761FC20002F
:10CDC0001F4FFC30390000F094F81E4E601D042304
:10CDD00031002022FF30FFF753FC200029303900BA
:10CDE000FF3000F07EF82000313031002022FF308B
:10CDF00000F046F820005D302100FF30FFF7E2FB35
:10CE00002000009B6930E36010222900FF3003F00E
:10CE1000DDFF0D490198FFF7F8FB29002000FFF71F
:10CE200090FFE0682100FFF7CDFC2000FEBDC0466A
:10CE3000E4460200C0460200C5460200CA4602009F
:10CE4000CF460200D4460200D946020010B50400C5
:10CE5000FFF761FB024A200013780133137010BD05
:10CE60005D240020014B18787047C0465D240020E7
:10CE7000704710B5040001F0E9FD200010BD00006E
:10CE800070B5040015000430094AFFF7DFFF0021E8
:10CE90002000084BA57208332360E31CE1720422D2
:10CEA000D9772830616203F091FF200070BDC04641
:10CEB000032800008C47020070B50400C3720D0007
:10CEC0000C3011001A0003F078FF0122E31CDA771E
:10CED000A36A002B02D021002800984770BD416250
:10CEE0007047A02210B504009201FFF7AFFF2000A9
:10CEF00010BDA02210B504009201FFF765FC2000D0
:10CF000010BDF0B50023050085B003AE29600375A0
:10CF100008000F0033707370B37004F0D9FD441E25
:10CF2000002C1ADB2B7D01930F2B16D83A5D2D2A8E
:10CF300001D101340FE03B19013B1B7872700021D5
:10CF400010223000337004F0C3FE019BEB181871FF
:10CF50002B7D01332B75023CE2E7280005B0F0BDC4
:10CF600004307047007D704771DF704772DF704793
:10CF700073DF704775DF704776DF704777DF704784
:10CF800078DF70477ADF70477CDF70477EDF70475D
:10CF90007FDF704786DF704790DF704792DF704712
:10CFA00096DF704798DF704799DF7047A0DF7047C2
:10CFB000A2DF7047A3DF7047A4DF7047A6DF70478A
:10CFC000A9DF704760DF704761DF704762DF70473D
:10CFD00063DF704753DF704710DF704711DF704722
:10CFE0005C300078431E9841C0B2704703000200D5
:10CFF000002030B56D331C78A04213DA156F0301A1
:10D00000EB181D688D420BD10020D98981420AD0CE
:10D010001B7B9B0707D5743213780130584002E020
:10D020000130E9E7002030BD0300002270B56D3308
:10D030001C78A24219DA056F1301EB181D688D42A6
:10D0400011D10022D989914210D01B7B9B070DD5AD
:10D050000300012474331C70008FFFF7A1FF4242CC
:10D060004241D2B202E00132E3E70022100070BD7B
:10D0700002000300002030B56D321478A0421BDAA4
:10D080001D6F0201AA1815688D4213D10020D189A5
:10D09000814212D0127B110704D574331B78013002
:10D0A00058400AE0520708D55C331878431E98416F
:10D0B000C0B202E00130E1E7002030BDF0B587B03A
:10D0C000050001936D3006780020B0422FDA2F6FF3
:10D0D00004013C1927688F4227D10020E689864247
:10D0E00026D0217B0C24214222D02F005C373C78B3
:10D0F00084421DD002230907C90F5B1A03A90B70D4
:10D100006B469B888A60CB802B0001227433013CE4
:10D110001A7048704E8088803C70288FFFF742FF5D
:10D12000030058425841C0B202E00130CDE7002070
:10D1300007B0F0BD0300002230B56D331C78A24269
:10D1400012DA056F1301EB181D688D420AD1002019
:10D15000DA89824209D0187B30231840431E984157
:10D16000C0B202E00132EAE7002030BD7FB5030023
:10D17000020000206D331C78A0422ADA156F0301EB
:10D18000EB181D688D4222D10020DC89844221D019
:10D1900030211B7B0B421DD002266946DB06DB0FCC
:10D1A0008D19F31A01A92B80487001238880100083
:10D1B000E41874300B7003704C80CE808D60108F3B
:10D1C000FFF7F0FE030058425841C0B202E00130C0
:10D1D000D2E7002004B070BD10B503681B6C9847FF
:10D1E00010BD0300002230B56D330400187885B0FF
:10D1F000824227DA256F1301EB181D688D421FD17B
:10D200000020DA8982421ED0197B302319421AD0BD
:10D210006B4658809D1C012301A9D2184A80022226
:10D22000CA80220074320B701370487088808D6041
:10D23000208FFFF7B7FE030058425841C0B202E00A
:10D240000132D5E7002005B030BD0B0010B5273303
:10D2500014DB0B001D3313DB0B00133312DB0B004D
:10D260000F3311DB0B000B3310DBCB1D10DBCB1CA2
:10D2700010DBCB17581AC00F80000DE028200AE001
:10D280001E2008E0142006E0102004E00C2002E03C
:10D29000082000E00420404240B2FFF76FFE434206
:10D2A0005841C0B210BD10B51321008FFFF764FEC6
:10D2B00010BD13B504006846FFF756FE206900282C
:10D2C00005D06A4603680132DB692100984713BD27
:10D2D000002337B5040001A80193FFF77BFE0198F6
:10D2E00003F086FB0022074B02F07EFD03F0FAFB01
:10D2F000021C2069002803D001680D6A2100A8479C
:10D3000037BDC0460000D03F704710B5040086B05E
:10D3100018220021684603F059FD0023A27A9A42A0
:10D3200000D103336A461370A0880A21000101F07E
:10D33000B5FC6B4618826846FFF71AFE06B010BDB2
:10D340000300F0B55D330C001A78050000231421AA
:10D3500091B0934262DA0E005E43286E86193068FF
:10D36000A04209D12000FFF7B5F90123184255D09A
:10D370007368002B02D151E00133EAE72F00290046
:10D3800033373B7814311A0008A8019303F015FDD8
:10D39000236820001B699847019B04301818C3B20A
:10D3A00001931F2B3AD87068FFF7B8F8010002A864
:10D3B000FFF7A7FD236820001B693E7898471822D5
:10D3C00002AB9B18033098553E7808AB9B19023A84
:10D3D00002A85A70FFF7C4FD023608AB0100022212
:10D3E000981903F0EAFC3E7808AB04369E192368CE
:10D3F0002000DB689847236807001B6920009847D6
:10D4000039000200300003F0D8FC002301991A0013
:10D4100008A8FFF7ABFD6C63012000E0002011B00D
:10D42000F0BD0A21F0B5D9B004ABC9188E2311AEF6
:10D430005B00040030000B80FFF7C6FD011E00D02A
:10D4400067E23388302B00D149E111D8112B5BD032
:10D4500004D8012B21D0102B25D05AE2142B00D157
:10D46000CEE0192B00D1DAE0132B00D051E2A3E07B
:10D47000382B00D1FFE106D8322B00D17EE1362BCC
:10D4800000D1DEE145E2502B00D1DBE0522B00D190
:10D490001FE1392B00D03CE211E25C342278337A70
:10D4A000D318237035E2B08809AD20872900FFF733
:10D4B0008DFD23002A785C331A702069002806D07D
:10D4C0003D22036804A952181B6821009847E2888E
:10D4D000052A0FD9C821238909018B420AD86B80FC
:10D4E0000023AB809133FF332A80EB80208F29000B
:10D4F000FFF740FD230064331B78002B00D108E2C6
:10D50000208F002201211CE101235B42238723009D
:10D5100005005C33187023005D331B789D4218DAD8
:10D52000142600276E43236E9E1937747774306873
:10D53000FFF7D2F8B8420AD02069B84207D0036892
:10D5400032685B6921009C463B006646B047013566
:10D55000E1E72069002803D0036821005B68984751
:10D5600000250C26230064331B789D4204DB002336
:10D57000250018006D350AE030006843A36E0422D0
:10D5800018180830002103F021FC0135EAE72A7859
:10D59000934208DA216F1A0189180873216F013349
:10D5A0008A18D081F3E72300002274331A702368AD
:10D5B00020009B699847ACE1E068002800D1A2E117
:10D5C000FEF7B4FF002800D09DE107AD0522002141
:10D5D000280003F0FBFB01233022EB7013432B7078
:10D5E000072300216B700933AB70A36D0D91099374
:10D5F0000E910F910A910B91208F09AB2A0086E1C1
:10D60000A56D338A6A8A208F9A4203D10B000A00E3
:10D61000290001E00B000A00FFF7BCFC79E1327A37
:10D62000002A00D075E1E068002804D021001C2306
:10D630003C31FEF790FF2069002800D169E10368C2
:10D640009B68FBE00500F388039323005D331B78A0
:10D650009D4200DB5DE114276F43236E039ADF19BF
:10D660003B8993420CD12069002800D151E1327CE2
:10D67000036800921D69462304AA9B183A683DE19D
:10D68000BB89039A934222D1F37CB27C1B021343E1
:10D69000012299B213403B7401234A081A40023315
:10D6A0000B407A745A1E93413868DBB20493FFF73B
:10D6B00013F8049B98420AD02069002800D128E181
:10D6C00003683A685D692100049BA84721E10135A0
:10D6D000BBE7208F0B000A00FFF772FC19E1F58809
:10D6E000002D31D14227B389039304ABFF18039B6C
:10D6F0009D421EDA230064331A780023934215DA20
:10D700000C205843A16E0818B9788C4681798C4555
:10D710000AD139888C4681888C4505D1391D04226F
:10D72000083003F04AFB01E00133E7E70135083731
:10D73000DDE70022039B208FDB00F618B189013161
:10D7400089B2FFF729FCE4E0230005000C216433D3
:10D750001A78954200DBDCE00B006B43A06EC31827
:10D760001889002808D05889002805D022000833DD
:10D770006C321570190057E00135EAE72000F38894
:10D780006C30002B3DD10C2142220378A76E4B4315
:10D79000FB189B68099304ABD2180A23B58905913D
:10D7A0006B430E33F318039323006D330493039BF1
:10D7B0009A4221D00025049B1B789D4217DA266FE0
:10D7C0002B01F318059906784E435968F6598E4295
:10D7D0000BD191789E7AB14207D111881E89B1424E
:10D7E00003D116791E731689DE810135E3E71589A9
:10D7F00009AB1D800A32DAE7208F09A9FFF7CEFBBB
:10D8000087E0230064331D780C23027801325343F0
:10D81000AA420EDAA16EC9180E89002E06D04E89D2
:10D82000002E03D002700831208FE7E701320C335D
:10D83000EEE7206900286CD00368DB682100984778
:10D8400067E02300743318700623F288FF339A428E
:10D8500002D1E368002B19D123006D33187800231F
:10D86000B189834255DA256F1A01AA18D5898D42EC
:10D8700039D00133F5E72300743318700623F2889A
:10D88000FF339A4245D1E368002B42D009AD05220F
:10D89000280003F09BFA0121EA782B780A43EA700A
:10D8A00070220B439343403A13432B7007236B7052
:10D8B0000933AB70208F2900FFF768FB29E0B37BA9
:10D8C000B589022B03D1208F2900FFF76DFB2300C0
:10D8D0006D33197800238B421BDA206F1A018218EE
:10D8E000D089A8420DD12069002812D0317C03686C
:10D8F00000919D69462304A912685B182100A8477E
:10D9000007E00133E7E7002385211A00208FFFF7A6
:10D910003FFB59B0F0BD10B50400FFF75FFB206F6F
:10D92000002801D003F030FAA06E002801D003F0E7
:10D930002BFA206E002801D003F026FA22000023E3
:10D940005D326D341370D371237010BD10B50400B7
:10D95000044B08330360FFF7DEFF2000FEF71AFFD9
:10D96000200010BDA047020010B50400FFF7EEFF35
:10D97000200001F06BF8200010BD000013B56C46CC
:10D9800012886180228001006A4602480193FFF7F5
:10D9900013FB16BDFFFF0000F0B5F3B002937AABA6
:10D9A0001B78070007937CAB1B7801911400CF49CB
:10D9B00004220EA8099303F000FA00210EA8FFF735
:10D9C0000BFB13ADCA4B14220021280001260F9334
:10D9D00003F0FCF90A230FA928002B802E732E7266
:10D9E000FFF7F0FA2823002511A80380DB184380F5
:10D9F0004133FF33C3808580FFF7C4FA2800FFF767
:10DA0000BDFA02233B750433BB753B00032233335D
:10DA10007E751A70019BAB421FD0AC421DD01F23F4
:10DA2000019A5343E618B44217D03D0033352878A5
:10DA300023783A180133137563780230C0B25375F6
:10DA4000287038182278A11C143003F0B6F9237816
:10DA50002A781F34D3182B70E5E70023029A9A42E4
:10DA60001DD0789A9A421AD01F261500029A564362
:10DA7000AA190192019AAA4211D02E782AA8721CE2
:10DA8000C2546978C2180233DCB251700019A91C63
:10DA90003200341903F091F91F35E3B2EAE73A0096
:10DAA00038003332117814302AAAFFF75FFA0020C9
:10DAB000FFF766FA0024079B9C420EDA799AA300CE
:10DAC000D058FEF72DFD8B4B984204D13A005D32C1
:10DAD0001378013313700134EDE73B005D331878A0
:10DAE0000338C0B218701423584303F043F90023DD
:10DAF0000BAA1380799A38660292019308930493D3
:10DB0000019B079A934200DB11E2029B1D682800EB
:10DB1000FEF704FD01001DA8FFF7F3F91DA8FFF7AC
:10DB20001FFA04001DA8FFF71DFA022808D1637828
:10DB300021781B0210AA0B4313800123937014E079
:10DB400032AE10222100300003F037F9637B227BD4
:10DB50001B02134310AA138000231A21737333731B
:10DB60000AABC9183000FFF733FA2800FEF7D8FCDB
:10DB7000A0239B01984212D12800FEF7CFFC5E49FA
:10DB800003F094FF002800D1CAE12800FEF7C6FC8C
:10DB90005A4903F08BFF002800D1C1E182E228003E
:10DBA000FEF7BEFC534B984200D048E12C1E00D03B
:10DBB0002C1F251D2800FEF7B1FC514903F076FF0C
:10DBC000002813D10122102332AD13432B70236898
:10DBD0002000DB689847236806001B6920009847EF
:10DBE000310082B22800FFF7CFF999E12800FEF753
:10DBF00095FC444903F05AFF002807D12368200010
:10DC0000DB6898470088FFF7BBF989E12800FEF739
:10DC100085FC3D4903F04AFF002800D180E1200047
:10DC2000FEF758FD236803901B69200098470AAB54
:10DC3000D88014230026049A31005A433B6E059283
:10DC40009B18089A1C605A601E745E741C2223A8DC
:10DC500003F0BCF801226421039B93430AAA5218E3
:10DC600013703023039A1A4213D00CAD03223100F3
:10DC7000280003F0ABF8102301221A432A70012276
:10DC800013436B70AB7805329343043A1343AB7084
:10DC900028950DAD03220021280003F097F83223C8
:10DCA000039A1A4212D0FA68233B002A06D00121B7
:10DCB0002A789A430A431340202205E001212A785A
:10DCC0009A430A431340102213432B700C23039AE8
:10DCD0001A4223D0FA6803330DA9002A16D0012076
:10DCE0004A789A4302431340202215E09C470200E1
:10DCF0008020002003280000C0460200CF4602001A
:10DD0000C5460200CA460200D446020001204A78F5
:10DD10009A4302431340102213434B7006220DAD69
:10DD2000AB7820009343043A1343AB7023689B699C
:10DD3000984701210122AB7882438B431343AB7098
:10DD4000019B5B180393029B0693079A039B9342E4
:10DD500038DA069B5E683000FEF7E2FBA4239B01E5
:10DD600098422FD1351E00D0351F2E1D3000FEF7F2
:10DD7000D5FBD34903F09AFE002810D12B68280068
:10DD80009B68984724902B682800DB6898472B688D
:10DD900023AE3081DB682800984770810CE03000AA
:10DDA000FEF7BCFBC74903F081FE002804D12B68B5
:10DDB00028009B6898472690039B01330393069B9A
:10DDC0000433C1E718AE14220021300002F0FEFF38
:10DDD00010AB18930DAB73600AABDB882000338166
:10DDE000236800259B689847059A3B6EB0819B1875
:10DDF0000833320023A928003561FFF7D9F80AABB0
:10DE0000DB88AB4216D00AAB9A1D13889D4208DA14
:10DE1000236829005B692000984732ABE85401353C
:10DE2000F1E7396E059B8C4663441889002132ABBB
:10DE3000FFF7A4FD049B0133DBB2049370E02800DC
:10DE4000FEF76EFBA4239B01984269D12C1E00D0E3
:10DE50002C1F251D2800FEF761FB994903F026FEC3
:10DE600000285DD02800FEF759FB974903F01EFEFD
:10DE7000002855D02800FEF751FB944903F016FE08
:10DE800000284DD02800FEF749FB8E4903F00EFE16
:10DE9000002845D023682000DB6898470DAE18ADF8
:10DEA00030801422002123A802F090FF03220021D9
:10DEB000280002F08BFF0223AB7023682000DB6890
:10DEC0009847328880B2801A03000121581E83418E
:10DED000A87888431843A870F8680E312B7800287A
:10DEE00000D1E6E001208B4303430B4020210B438C
:10DEF0002B7010AB239318AB2493236823AEDB68FD
:10DF00003281200098470025B0810BAA31002800FB
:10DF10003561FFF74FF80DAB1B88AB4200D0D9E05D
:10DF2000019B01330193029B04330293E8E5002433
:10DF3000099BA34220D01E002500023EF6B2340009
:10DF4000B54219DA7B9AAB00D4582000FEF7E8FA04
:10DF5000A0239B01984202D13A00643207E02000DE
:10DF6000FEF7DEFA5A4B984204D13A006D3213782C
:10DF7000013313700135E2E73B00643318780C235A
:10DF8000584302F0F7FE3B00B8666D331878A400E2
:10DF9000000102F0EFFE7B9E3867331904930023E3
:10DFA000029301930393049B9E426ED03468200039
:10DFB000FEF7B4FA010032A8FEF7A3FF32A8FEF77D
:10DFC000CFFF050032A8FEF7CDFF022808D16B78FD
:10DFD00029781B021DAA0B4313800123937019E0BB
:10DFE0001022290023A802F0E8FE6B7B2A7B1B028B
:10DFF000134371211DAA138000230AAA521813701B
:10E0000001390AAA5218137022390AABC91823A879
:10E01000FEF7DEFF2000FEF783FAA0239B01984263
:10E0200014D10C20019B00215843BB6E1B181C60AF
:10E030001D9A5A60BB6E04221818083002F0C6FE02
:10E04000019B03940133DBB201931CE02000FEF737
:10E0500067FA1F4B984216D1029B3A6F1B01D218E8
:10E06000211E00D0211F1160039951601D999160FC
:10E0700000213A6FD21811733A6FD318D981029BDD
:10E080000133DBB2029304368DE7F868002803D031
:10E09000FEF74CFA002831D13B6838009B6998475D
:10E0A00073B0F0BD0BAA10A90120FEF77FFF089501
:10E0B00036E701208B4303430B40102117E7C0468E
:10E0C000B638020004480200094802000E48020067
:10E0D000032800000DAA13889D4208DA236829004E
:10E0E0001B692000984732ABE8540135F2E70BABCF
:10E0F0001888002132ABFFF741FC11E739001C23DF
:10E1000000223C31F868FEF735FAC5E70023F0B588
:10E1100004000E0089B000930133019323005D33A6
:10E120001B78009A9A4253DA14255543236E5D19E1
:10E130002B68B34248D1636B9E4204D123683100FF
:10E140005B6A20009847336830001B69984702AB30
:10E15000D88033683000DB682F89984702AA030013
:10E1600006323800002104AFFFF708FC102200211E
:10E17000380002F02BFE2B893B8002AB0633BB60DC
:10E180002B7C002B0ED022005C321378002B08D0A1
:10E19000013B13700123BB70208F3900FEF70EFF87
:10E1A00000E001936B7C002B0ED022005C321378D0
:10E1B000002B08D0013B13700223BB70208F390065
:10E1C000FEF7FCFE00E00193009B01330093A5E7FE
:10E1D000019809B0F0BD000010B50400FEF7E2FAA6
:10E1E0000E4B0021083323602300333319700123C1
:10E1F0005B422387200023003C305C3361631C2298
:10E200001970597021661972A166197459742167C1
:10E210001976A06502F0DAFD200010BDA0470200CB
:10E2200003210A4802680A430260094802680A4357
:10E2300002600849084A094B9B1A03DD043BC85891
:10E24000D050FBDC00F08EF8FCF794FF2405004072
:10E2500054050040844C0200802000203C21002016
:10E26000FEE7FEE7FEE7FEE7FEE7FEE7084A0949AC
:10E27000094B10B51B688858FA22190A1B06184367
:10E280009200002300F034FE4904C00B084310BD87
:10E2900004050000001001406024002070B5041E39
:10E2A00009D0FFF7E3FF050000F014F8FFF7DEFFE9
:10E2B000401B8442F8D870BD0022044B9A60044A87
:10E2C00013680133DBB213607047C046FC10014095
:10E2D000602400207047000000B51E2816D80C4AA4
:10E2E00083009B58032911D8A0220800C133FF33B3
:10E2F000D2059B0000F03EFC02080406002104E069
:10E300000C2102E0042100E00321D15000BDC046F1
:10E31000144802001E280DD8074B8000C058A022C8
:10E320000123D2058340002901D1044901E0A12144
:10E33000C90053507047C046144802000C05000045
:10E34000030000201E2B0AD8A222A021D200C9055A
:10E350008858034A9B009B58D840012318407047B7
:10E36000144802002D4B10B51A78012A19D12C4AF5
:10E370001268120715D12B4AE0241168F022080018
:10E38000104021420BD128490968114209D127497F
:10E39000274A11608021274A0902116001E03028D4
:10E3A000F1D01A78012A0DD11D490968090709D150
:10E3B000F0201C4909680140402903D11A49096825
:10E3C000014223D01B68DBB2012B25D1144B1B6803
:10E3D0001B0721D1134B1A68F0231A40A02A04D13D
:10E3E000114A12681A4203D016E0D02A14D1F7E776
:10E3F000114B1A68012A03D1C022104B1A600BE09E
:10E400000F4A1A601A68012AFCD1F5E7C121802061
:10E41000C900C0054250D5E710BDC046E00F00F06E
:10E42000E40F00F0E80F00F0EC0F00F0DFFF07C092
:10E4300004050040186C004000EC064014EC064057
:10E4400075930000F7B506000D000C008B180193C2
:10E45000019B671B9C4207D0336821781B68300002
:10E46000984701340028F3D13800FEBD70B505008F
:10E470000C00081E07D003F02BFB2B6802005B6822
:10E4800021002800984770BD10B5FFF7EFFF10BDC1
:10E4900010B503681B68984710BD000010B502490D
:10E4A000FFF7E4FF10BDC0469448020070B50500B8
:10E4B000FFF7DCFF04002800FFF7F0FF001970BD34
:10E4C000F0B5160000228DB002AB053301900D00AF
:10E4D000DA77012E00D80A260BAC2800310000F0B4
:10E4E000D9FB0F00CBB228003100009300F04CFBA9
:10E4F000FBB237330500013CDBB2092F02D8009B89
:10E500003033DBB22370002DE7D121000198FFF7F3
:10E51000ADFF0DB0F0BD10B5002A04D10368C9B23B
:10E520001B68984702E0D2B2FFF7CAFF10BD10B5D2
:10E53000FFF7F1FF10BD70B50500FFF7ECFF040019
:10E540002800FFF7ABFF001970BDF8B506000C00FE
:10E55000151E04D10368C9B21B68984714E0D2B2F3
:10E560000A2D0DD12A0000290ADA2D21FFF790FF8C
:10E57000614207002A003000FFF7A2FF381803E0CD
:10E5800021003000FFF79CFFF8BD70B50400FFF7D5
:10E59000DCFF05002000FFF781FF281870BD012077
:10E5A000704710B503681322DB69984710BD7047A8
:10E5B0000369054A9950FC331A6A002AFCD00022EC
:10E5C00001201A627047C0461C050000030010B508
:10E5D0005C331A781F2313400122110099400D4B20
:10E5E0000424D967C221036989005C505A60DA604B
:10E5F000A0220021D20099500122074952425A50CC
:10E60000064914305A500C395A5008315A5000F00B
:10E6100061FA10BD04E100E00C05000014050000E3
:10E6200010B5143000F068FA10BD10B5143000F0C9
:10E6300069FA10BD10B5143000F050FA10BD00009A
:10E64000030070B55E331C780269604BD450030040
:10E650005D331C785E4BD450030061331C785D4BF6
:10E66000012C0CD105005F352E78A225ED00565106
:10E67000050060352E78A125ED00565100E00024FC
:10E68000D4509623DB00994238D996231B01994236
:10E6900037D996235B01994236D996239B0199423B
:10E6A00034D9E1239B01994232D99623DB01994267
:10E6B00031D9E123DB0199422FD996231B029942DC
:10E6C0002DD9E1231B0299422BD996235B02994253
:10E6D00029D9E1235B02994227D9E1239B02994280
:10E6E00025D93D4B994224D9E123DB02994223D914
:10E6F000E1231B03994221D8384B21E09E23DB0202
:10E700001EE09D231B031BE0354B19E0354B17E042
:10E71000EC239B0314E0344B12E0344B10E0344BF9
:10E720000EE0344B0CE0344B0AE0344B08E0344B41
:10E7300006E08023DB0403E0324B01E080235B052D
:10E740003149002453500423243953501100FC3123
:10E75000CC600C62C1210134890014605C3094608B
:10E76000535003781F202200D9B2084082408034E1
:10E770002648FF345BB20251002B13DA0F230B4003
:10E78000083B234C9B089B001B1903242140A140FC
:10E79000FC348C40DD69A543C0248C402100294312
:10E7A000D96111E0194C9B089B001B1903242140DF
:10E7B000A140C025FC348C40AD005E59A643C02466
:10E7C0008C40210031435951026070BD0C0500009E
:10E7D000140500006C05000090D0030000D0BE0EB0
:10E7E00000B013000050270000A04E0000F075009C
:10E7F00000509D0000F0EB0000903A0100E0D701CE
:10E8000000B0AF0300705F072405000000E100E0E6
:10E8100000ED00E0F7B5009308AB1B7800250193ED
:10E82000FA2304009B0083600E4B456008330360AD
:10E8300014300F00160000F037F923005C33276115
:10E840001E70009B084A9B00995823005D33197085
:10E85000019B20009B009A5823005E33DD701A70E4
:10E86000FEBDC046A848020014480200036910B566
:10E870001A00FC32D2680400002A0AD0A322D20077
:10E8800099581430C9B200F01AF900222369FC33F8
:10E89000DA6010BD10B50248FFF7E8FF10BDC046B2
:10E8A00064240020122307B5022200930249013B91
:10E8B0000248FFF7AFFF07BD00200040642400209E
:10E8C00010B50400006802F05FFA200010BD10B51A
:10E8D00004000068002801D002F056FA00232360EB
:10E8E000A360636010BD70B504000D0000680131C5
:10E8F00003F0C0F8031E01D0012028C470BD0368D6
:10E9000010B50400002B02D043688B4209D22000CE
:10E91000FFF7E9FF002805D0A368002B01D122688A
:10E920001370012010BD70B50E0011000400150019
:10E93000FFF7E5FF002803D12000FFF7C8FF04E040
:10E94000A5603100206803F0BBF8200070BD0023F3
:10E9500070B504000D1E0360436083609D4207D0C4
:10E96000080003F0B5F8290002002000FFF7DBFFE4
:10E97000200070BD10B50B00041E8C4208D0096841
:10E98000002903D09A68FFF7CEFF01E0FFF79FFF51
:10E99000200010BD002310B50400036043608360B5
:10E9A000FFF7E8FF200010BD70B504000D1E08D071
:10E9B000080003F08DF8290002002000FFF7B3FFE4
:10E9C00001E0FFF784FF200070BD10B500230400B4
:10E9D0008AB023606360A360080001A902F0C5F952
:10E9E00001A92000FFF7E0FF20000AB010BD70B5BC
:10E9F0000D00002A14D0002912D08168994202D853
:10EA000000232B700CE0541EC91A8C4200D90C0054
:10EA100001682200C918280003F061F800232B5573
:10EA200070BD704710B500F015F8FFF7FAFF012030
:10EA3000FFF734FCFDF748FBFDF7B8FA024B002B5B
:10EA4000FAD000E000BFF7E70000000010B502F0C8
:10EA50009BF910BDC421114A89005058104B034046
:10EA6000C020000203435350802391399B02FF3999
:10EA700053501360A321802301220020DB05C9002D
:10EA80005A509A60074B10395850C120022180001B
:10EA90001950403019501A607047C04600E100E03C
:10EAA000FF00FFFF0010014010B5402200210400CC
:10EAB00002F08CF9002320002364636410BD3F231F
:10EAC000026C10B5541C2340446C9C4201D081540C
:10EAD000036410BD0023036443647047436C026CFD
:10EAE000934206D03F21C25C01330B4043641000C7
:10EAF00001E0012040427047036C406C181A00D5B9
:10EB000040307047436C026C934201D0C05C01E01E
:10EB100001204042704700000A000300024330B564
:10EB20000220002A00D130BD80221206914216D068
:10EB30000C4A0D4C8A180420A242F4D90B4A8A18B8
:10EB4000A242F0D90A4A4900490803209142EAD971
:10EB5000064A00209142E6D158425841E3E7002B93
:10EB6000E1D0EFE70000F0FFFFFFDF7F0000F07F64
:10EB7000FFFF0F0002B4714649084900095C4900D3
:10EB80008E4402BC7047C046002243088B4274D3B7
:10EB900003098B425FD3030A8B4244D3030B8B429E
:10EBA00028D3030C8B420DD3FF22090212BA030CA7
:10EBB0008B4202D31212090265D0030B8B4219D388
:10EBC00000E0090AC30B8B4201D3CB03C01A5241A8
:10EBD000830B8B4201D38B03C01A5241430B8B42F0
:10EBE00001D34B03C01A5241030B8B4201D30B03D9
:10EBF000C01A5241C30A8B4201D3CB02C01A524100
:10EC0000830A8B4201D38B02C01A5241430A8B42C2
:10EC100001D34B02C01A5241030A8B4201D30B02AB
:10EC2000C01A5241CDD2C3098B4201D3CB01C01AC5
:10EC3000524183098B4201D38B01C01A52414309CF
:10EC40008B4201D34B01C01A524103098B4201D3BD
:10EC50000B01C01A5241C3088B4201D3CB00C01A2A
:10EC6000524183088B4201D38B00C01A52414308A2
:10EC70008B4201D34B00C01A5241411A00D20146C7
:10EC8000524110467047FFE701B5002000F0F0F850
:10EC900002BDC0460029F7D076E7704703460B4314
:10ECA0007FD4002243088B4274D303098B425FD385
:10ECB000030A8B4244D3030B8B4228D3030C8B42B1
:10ECC0000DD3FF22090212BA030C8B4202D3121297
:10ECD000090265D0030B8B4219D300E0090AC30B6C
:10ECE0008B4201D3CB03C01A5241830B8B4201D319
:10ECF0008B03C01A5241430B8B4201D34B03C01A02
:10ED00005241030B8B4201D30B03C01A5241C30A79
:10ED10008B4201D3CB02C01A5241830A8B4201D3EA
:10ED20008B02C01A5241430A8B4201D34B02C01AD4
:10ED30005241030A8B4201D30B02C01A5241CDD279
:10ED4000C3098B4201D3CB01C01A524183098B42C4
:10ED500001D38B01C01A524143098B4201D34B01AD
:10ED6000C01A524103098B4201D30B01C01A524110
:10ED7000C3088B4201D3CB00C01A524183088B4297
:10ED800001D38B00C01A524143088B4201D34B0080
:10ED9000C01A5241411A00D20146524110467047F2
:10EDA0005DE0CA0F00D04942031000D340425340F7
:10EDB00000229C4603098B422DD3030A8B4212D3B7
:10EDC000FC22890112BA030A8B420CD389019211E9
:10EDD0008B4208D3890192118B4204D389013AD026
:10EDE000921100E08909C3098B4201D3CB01C01AFB
:10EDF000524183098B4201D38B01C01A524143090E
:10EE00008B4201D34B01C01A524103098B4201D3FB
:10EE10000B01C01A5241C3088B4201D3CB00C01A68
:10EE2000524183088B4201D38B00C01A5241D9D280
:10EE300043088B4201D34B00C01A5241411A00D201
:10EE40000146634652415B10104601D34042002BFD
:10EE500000D54942704763465B1000D3404201B57C
:10EE6000002000F005F802BD0029F8D016E7704731
:10EE70007047C0468446101C62468C46191C634687
:10EE800000E0C0461FB500F045FF002801D4002176
:10EE9000C8421FBD10B500F099FE4042013010BDC0
:10EEA00010B500F037FF002801DB002010BD012065
:10EEB00010BDC04610B500F02DFF002801DD002078
:10EEC00010BD012010BDC04610B500F0BFFE0028E7
:10EED00001DC002010BD012010BDC04610B500F0BF
:10EEE000B5FE002801DA002010BD012010BDC0468B
:10EEF000F0B54F464646C0B41604360C994633006A
:10EF000005042C0C070C150C63437E436F436543CB
:10EF10001C0CAD1964199C46A64203D980235B02E0
:10EF2000984647446346250CEF191D044B464A4357
:10EF300043432D0C240464199918C91920000CBCF2
:10EF400090469946F0BDC046F8B556465F464D46D8
:10EF50004446F0B40F00FD0FAA4609037C002E00C2
:10EF60005F00450F490A7F0D2943C5001803BC46C1
:10EF7000400A570F640DDB0F3843D2009A4500D189
:10EF8000AAE06646A61B002E00DCFFE06346002BCD
:10EF900039D10300134300D0D9E06B0709D00F2308
:10EFA0002B40042B05D02B1DAB42AD416D424919BE
:10EFB0001D000B0200D482E0CA4B01349C4200D1F8
:10EFC000FEE00A005646C84BED081A40500764059B
:10EFD00052020543120B640D002112030B0D1B0599
:10EFE0006405120B1A436308C04CF60714401C4317
:10EFF000640064083443280021003CBC90469946D4
:10F00000A246AB46F8BDB74B9C42C6D080231B043A
:10F010001843382E00DDEBE01F2E00DD1EE120231B
:10F020009B1B9C4603006746BB409846130047461F
:10F03000F3403B436746BA40571EBA4113430200B0
:10F04000F240EB1A9D42B6411D008A1A7642911B8E
:10F050000B0231D54A02560A002E00D1B4E030002E
:10F0600001F0CCFD0300083B1F2B00DDB5E02022A2
:10F070002900D21AD1409E400A009D4032439C4252
:10F0800000DDB1E01C1B631C1F2B00DDD5E020213F
:10F0900014002800C91A8C40D8408D400443DA403F
:10F0A000681E854111002543002476E7414631431F
:10F0B00000D134E2310045466B0700D06FE7564679
:10F0C0004807ED08C9080543864B9C4235D00A0322
:10F0D0006405120B640D7FE76346E31A9B46002B21
:10F0E00000DC8BE06746002F3CD07E4FBC4200D155
:10F0F00053E780273F0438435B46382B00DCF7E0BA
:10F100000243501E82410020D2B253194218AB4232
:10F1100089411D00494289180B02CDD5714B01343C
:10F120009C4200D13DE101206F4A6B080A40284013
:10F130001843D507054351082FE72B000B4300D197
:10F14000CBE180231B030B431A03120B44E7013E60
:10F15000002E6DD1AE1AB5429B41091A5B42C91A05
:10F16000350075E70700174300D116E701235B421E
:10F170009C46E3445B46002B00D0E0E0AA18AA427C
:10F180009B4109185B4259181500C5E7002E75D13F
:10F19000661C7605760D012E00DCF3E0AE1AB04653
:10F1A0004545BF410E1A7F42F61B370200D48FE05F
:10F1B000551BAA42B641411A76428E1B9A464BE72E
:10F1C00056460022002507E7280001F017FD2030F1
:10F1D0000300083B1F2B00DC49E72A002838824047
:10F1E00000259C4200DC4DE73F49E41A1140D4E67B
:10F1F0000243501E8241D3B2002222E7002B00D0EE
:10F20000F3E0631C9C465B055B0D012B00DC9FE07B
:10F21000344B9C4500D1C3E0AA180918AA4280418A
:10F2200040424118CD075208154349086446B4E6E8
:10F230002C4B9C4200D0ECE6AFE611001F3CE140B5
:10F240000C00202B00D17FE04021CB1A9A401543BF
:10F250006A1E95410021254300242DE73300070055
:10F26000203BDF403B00202E70D04027BE1BB0402B
:10F270000243501E824113430022E2E6002C4FD08D
:10F28000184CA44500D1ABE08024240476422143ED
:10F29000382E00DDDFE01F2E00DD43E12027BC1B00
:10F2A000A1460C004F46BC40A0462C004746F44007
:10F2B0003C434F46BD406F1EBD41F1402C43151BE2
:10F2C000AA429241411A5242891A64469A46BFE6BE
:10F2D00041464546314300D0BEE6002600240025C5
:10F2E000F2E6C046FF070000FFFF7FFFFFFF0F8031
:10F2F0001F2B59DC2027FF1ABC46070063469F409E
:10F300005B46B9461700DF40B8464F4643461F43A9
:10F3100063469A40531E9A415B463A43D840F4E60E
:10F320000C002C435CD0F643002E55D1551BAA424D
:10F33000A441411A6442091B9A46644688E6964FE6
:10F34000BC4200D0D8E628E6002280E700208FE704
:10F350000B002B43002C00D0C2E0002B00D101E1B8
:10F360000300134300D118E6AB18AB42B6410918AD
:10F37000764271180A0200D409E1884A1D00114042
:10F3800064460AE6002C5BD10E002E4300D08AE0D2
:10F390000100114300D1C2E0010015009A46FCE5CE
:10F3A0006446002100258FE620235B429C46DC4416
:10F3B00063460700DF405B46BC46202B00D1ACE033
:10F3C00040235F46DB1B98400243501E8241634648
:10F3D00013431A00002098E66F4CA44500D057E76D
:10F3E0000100150064469A46D7E5002C39D10C007F
:10F3F0002C436ED0DB43002B1AD0674CA44568D059
:10F40000382B00DDA4E01F2B00DDAEE020240F0030
:10F41000E41AA740B9462F00DF40B846A3464F463E
:10F42000444627435C46A5406C1EA541D9403D4358
:10F43000AD1895429B4109185B42591864466BE62A
:10F440000C002C4315D1010011437BD001001500A5
:10F450009A46514CA1E50D43691E8D410021ECB245
:10F460002DE74D4CA44534D0802424045B42214335
:10F47000C6E7040014434ED0ED084C072C4380250A
:10F48000C9082D03294208D0C6082E4205D1D2084A
:10F49000410711430C009A463100620FC900E50094
:10F4A00011433D4C79E50600164300D175E5AE1ACF
:10F4B000B0464545BF410E1A7F42F61B370200D4C5
:10F4C000F4E5551BAA42B641411A7642891B9A4679
:10F4D00063E50100150064465FE5002200257BE539
:10F4E000002B3BD00300134315D0ED084B072B43F3
:10F4F0008025C9082D03294207D0C4082C4204D115
:10F5000041070B002100D2081343C9005A0F1143D1
:10F51000DD00214C41E5204C3FE5002054E700266A
:10F520000025D1E534000F00203CE7403C00202EB0
:10F530002BD04027BE1BB1400D43691E8D410021D9
:10F540002C43BCE6802100260903134C0025BBE5B3
:10F550000D43691E8D410021EDB269E701001500E0
:10F560000D4C1AE50100150017E51C000F00203CAA
:10F57000E7403C00202B0CD04027FB1A99400D435C
:10F58000691E8D410021254352E70021D4E71D006B
:10F5900092E50021F3E7C046FF070000FFFF7FFF71
:10F5A000F0B556464D4644465F46F0B41D000E0386
:10F5B0004C00CB0F87B0070092468146360B640D96
:10F5C00098466AD06D4B9C4235D08022430F12047E
:10F5D0001343F6001E43C3009946694B00279C461F
:10F5E0000023644402932B0368001B0BED0F51466C
:10F5F0009B46400D009500D178E0604B98426CD05E
:10F600005B46DA004B0F802109040B4313439B46F2
:10F610005346D9005A4B9C46002360444246201A68
:10F620006A40924601901F430F2F00D9B0E0554821
:10F63000BF00C0598746374300D088E00023994671
:10F640000233082700260293CDE74346B3464946D6
:10F650000093029B009A9246022B00D0BFE100214A
:10F6600053460122002689461A40444B00213603A6
:10F670000C0D2405360B2643434C1B0526401E4328
:10F680007600D207760816434846310007B03CBCE6
:10F6900090469946A246AB46F0BD330003434FD097
:10F6A000002E00D1BCE1300001F0A8FA03000B3BB2
:10F6B0001C2B00DDADE11D220100D31A08393A00F0
:10F6C0008F408E40DA40B9461643304B00279C46A7
:10F6D000002360444442029385E753465A4613434D
:10F6E0002CD1002300219B46023397E70B4320D007
:10F6F0005B46002B00D19EE1584601F07FFA0300E3
:10F700000B3B1C2B00DD8FE102005946083A91406B
:10F710008B461D21CB1A5146D9400B0059460B434D
:10F7200051469B469140194B9C4660444042002301
:10F7300074E7002300219B4601336FE703236DE745
:10F740000023994601330427002602934BE7032345
:10F750000C27029347E70122D51A382D00DCB0E1CF
:10F7600053461A4000210023002689467EE70023E5
:10F770008026994600223603004B77E7FF070000FA
:10F7800001FCFFFFD8480200FFFF0F80F3030000D9
:10F790005E4500D972E100D16DE1019B4D46013B10
:10F7A00001930023340002935B461E020B0E1E439E
:10F7B0000B020393330C994633041B0C494620007B
:10F7C0000093FFF7E1F9009B3700434306004946E9
:10F7D00020009846FFF75EFA2C0C09040C43A04564
:10F7E00009D9E419731EA74200D95CE1A04500D8ED
:10F7F00059E1023EE4194346E41A49462000FFF766
:10F80000C3F90300009A80465343494620009B46B3
:10F81000FFF740FA2A040904120C0A4393450DD954
:10F820004346D219013B974200D93AE1934500D8AB
:10F8300037E102235B429C46D219E0445B46D21A70
:10F840004346360433439B460399180C0B0C1D00AA
:10F85000059309045B46090C0C001B041B0C444374
:10F86000049159436B4368431B190D0CEB189C42E0
:10F8700003D980246402A44660441C0C09041B04C0
:10F88000090C20185D18824200D2DEE000D1D7E0DA
:10F89000161A029B9C465D1BAC459B415B42F61AC7
:10F8A000B74200D106E149463000FFF76DF9009BF1
:10F8B00004004343494630009846FFF7EBF92E0C0D
:10F8C00009040E43B04509D9F619631EB74200D9A1
:10F8D000F3E0B04500D8F0E0023CF6194346F31AD5
:10F8E000494618000293FFF74FF9009B0600434377
:10F8F000494602989846FFF7CDF92D0409042D0CCE
:10F900000D43A84509D9ED19731EAF4200D9D6E0C1
:10F91000A84500D8D3E0023EED1924042100434657
:10F920003143049E059A3000ED1A0B040C0C1B0C9D
:10F9300058436643534354439A19030C9B189E4201
:10F9400003D980225202944664441A0C00041B041A
:10F95000000C14191B18A54250D34DD00123194394
:10F96000964A019B94466344002B00DCF3E64A0769
:10F9700009D00F220A40042A05D00A1D8A42894173
:10F9800049428B4411005A46D20108D55A468C4B45
:10F990001A4093468022D2009446019B6344894AD0
:10F9A000934200DD5BE65A46C908500708435602F9
:10F9B000514601225B058146360B5B0D0A4055E638
:10F9C00080231B031E4211D05A461A420ED15E46B6
:10F9D0001E433603360B2A0089467B4B46E6032B33
:10F9E00000D1E1E0012BBBD11A40BBE61E43360338
:10F9F000360B4246744B39E6002BB1D07D194A1EB6
:10FA0000AF4252D91100A542A8D1039A9A42A5D17A
:10FA1000A6E703003E00283B9E400023994654E69B
:10FA200001F0ECF8203041E603005246283B9A40B2
:10FA30000021934677E6504601F0E0F820305EE67C
:10FA4000029B0026AB4200D323E7039E0299B446F3
:10FA500061448846B045B6415B467642F619B21815
:10FA6000013B0291974213D290424FD800D18EE0D1
:10FA7000161A9B460DE7894500D28EE674084B4660
:10FA8000F60735005B081D434B46DB0702938BE608
:10FA90009742EDD10399029CA142E5D93E1A9B46BB
:10FAA000F7E69846CAE61E00A5E6AC423ED874D0FA
:10FAB000110053E70121494252E71C000EE71E00E6
:10FAC0002BE71F2D3CDC20230A0058465B1B984087
:10FAD000EA4099400243481E81415E461143EE4090
:10FAE0004B0709D00F230B40042B05D00B00191D29
:10FAF00099429B415B42F61833023CD553460122A2
:10FB000000211A40002601238946AFE502235B420B
:10FB10009C46039CE344A446029B63449846A0454C
:10FB2000B6417642F6190293B218B1E603988A1EDE
:10FB300041008142B6417642F619AD19039161E761
:10FB40001F225242D31A5A46DA401300202D29D0E0
:10FB500040225846551BA8400143481E81410720BA
:10FB60000B4318400026002809D00F2200261A4017
:10FB70001900042ABBD10B0070077602360BDB0894
:10FB800003439946012253461A4000236EE5029929
:10FB90008D42BBD89B4600267BE603989842C5D38E
:10FBA000110032E70020D7E780265B4636031E436C
:10FBB0003603360B009A8946034B57E5FF030000D6
:10FBC000FFFFFFFEFE070000FF070000F0B55F46E5
:10FBD00056464D464446F0B41F035C00DB0F9A4680
:10FBE000194B0E034D00C90F8046360B6D0D8B4629
:10FBF00091463F0B640D9D4219D0134B9C421BD084
:10FC00000123A54206D018003CBC90469946A24666
:10FC1000AB46F0BDBE42F6D1C845F4D1D34510D0B5
:10FC2000002DF0D1304303005A1E9341EBE7310021
:10FC300001230143E7D1E0E73A430123002AE2D15F
:10FC4000DEE70023DFE7C046FF070000F0B55F46B0
:10FC5000444656464D46F0B41F033C0B2C4F0E0352
:10FC60004D00A3465C008446360B6D0DC90F9046CF
:10FC7000640DDB0FBD422BD0254FBC422ED0002D92
:10FC80000ED130430700814678427841002C17D1CD
:10FC90005F463A4314D14B460020002B0AD006E0C1
:10FCA000002C02D15846024301D099421AD00123B8
:10FCB000484218433CBC90469946A246AB46F0BD2C
:10FCC0000028F2D058425841012240421043F1E747
:10FCD00037000743D0D002204042EBE75F4617438E
:10FCE000CDD0F8E7A542E2DC05DB5E45DFD808D0E1
:10FCF00000205E45DED2484248410123404218437D
:10FD0000D8E7C445D3D80020C445F4D3D2E7C046D1
:10FD1000FF070000F0B55F464D4644465646F0B436
:10FD20001C03240BA4462F4C0F034D005E00C90F8B
:10FD300080463F0B6D0D8B469146760DDB0FA5423D
:10FD400020D0284CA64222D0002D12D13843444264
:10FD50004441002E20D0002C0DD05C426341012490
:10FD60005B421C4320003CBC90469946A246AB46F1
:10FD7000F0BD002E17D05B4519D05B465C420123D5
:10FD80001C43EFE7390002240143EBD1D9E7614678
:10FD900002241143E6D1D7E761460A43DBD10024B0
:10FDA0000028DFD0E9E761460A43E4D1E5E7B54240
:10FDB00003DD01225C421443D4E7B542CDDB674545
:10FDC000DBD809D000246745CCD259464C4261416A
:10FDD000012449420C43C5E7C845CED80024C84594
:10FDE000F3D3BFE7FF070000F0B55F4656464D4628
:10FDF0004446F0B40D0399464E002B0B87B0070024
:10FE0000924680469B46760DCC0F002E69D06D4BF6
:10FE10009E4235D05B468022DD001204430F13431F
:10FE20002B439B46C3009846674B00279C46002304
:10FE3000664401934A4615035000D20F53462D0BDA
:10FE4000400D914600D176E05E4A90426CD080220F
:10FE50005B0F120413435C4AED0094461D43534666
:10FE60000022DB00604449463618701C6140029055
:10FE700017430F2F00D9AFE05448BF00C759BF4602
:10FE80005B461F4300D088E000239B469846023320
:10FE900008270193CEE74946022A6AD0032A00D1F7
:10FEA00009E2012A00D0BBE1114000220023002515
:10FEB0009046CCB200212D030A0D12052D0B1543DF
:10FEC000434A1B0515401D436D00E4076D0825439B
:10FED0004046290007B03CBC90469946A246AB4636
:10FEE000F0BD034352D05B46002B00D18AE1584657
:10FEF00000F084FE03000B3B1C2B00DD7BE11D2288
:10FF0000D31A3A0001005D46DA4008398D401300EB
:10FF10008F402B439B46B8462E4B00279C46002320
:10FF200060444642019385E752462A432CD100257E
:10FF30000023022297E752462A4321D0002D00D108
:10FF400054E1280000F05AFE03000B3B1C2B00DD9F
:10FF500046E11D21CB1A51460200D9405346083ACA
:10FF6000954093400D431B4A944660444042002212
:10FF700079E7012400220C40124B0025904699E7B6
:10FF80000025002301226EE703226CE700239B4635
:10FF900098460133042701934CE703230C27019370
:10FFA00048E700238025984600242D03054B81E770
:10FFB0005D464346019A6FE75D4643462100019A3C
:10FFC0006AE7C046FF07000001FCFFFF1849020076
:10FFD000FFFF0F80F30300004246120C91461A0CFB
:10FFE0009446424617044A461B041B0C5A4360467B
:10FFF00090464A4642431000039262461C003F0C62
:020000022000DC
:100000007A437C4342440192220C9246019A524424
:10001000904506D98246802040028046C244504620
:100020000390100C049048462404240C1204121966
:1000300005922A0C2D042D0C68432C00824648465C
:100040007C4350438146200C8046574357444744E5
:10005000BA4503D9802040028046C144380C3F0491
:10006000B84648442404240C01900498A044404419
:1000700004905846000C814658460404200C8246E1
:10008000070048465F434C4643436046604364462E
:10009000834650464443380C8446E4186444A342E3
:1000A00003D980235B029C46E34448463F04230C6B
:1000B0003F0C2404E419574668436F4384464D4679
:1000C000504655434243380C814662444A445B449F
:1000D000944503D9802040028446654403983F0438
:1000E000834604983F0C8446E344C3458041404224
:1000F0008246100484460198674484466744A344BA
:10010000BC46A345A4419946D44464428742BF41BA
:10011000D4458041E144A04699459B417F424042FD
:10012000C8440743120CBA18A045A4415F423B00E3
:1001300064422343D71843467D19DB0D6D021D43EE
:100140005B465A02059B1A43531E9A415B46DB0DE0
:100150001A4343465B021343EA0107D501225C08B8
:1001600013402343EA07029E13436D08574AB2180F
:10017000002A4BDD580709D00F201840042805D06D
:10018000181D98429B415B42ED180300E80104D51D
:100190004F4A15408022D200B2184E48824200DDFC
:1001A000E7E60124DB08680718436D025305804623
:1001B0002D0B5B0D0C407DE6802259461203114247
:1001C00008D0154206D115432D0398462D0B4C46F9
:1001D000414B6FE65D4615432D032D0B3E4B69E603
:1001E00003005546283B9D400023BCE6504600F0E6
:1001F00005FD2030A8E60300283B9F400023BB46B6
:10020000984689E600F0FAFC203073E60124A61A2D
:10021000382E07DD00220C4000230025904649E6D9
:10022000029EA3E71F2E20DC20222C001800921B28
:10023000F040944093400443581E83411C43F540D2
:10024000630709D00F232340042B05D023001C1D76
:100250009C4292415242AD182B021FD5012400222C
:100260000C4001230025904624E61F202C0040422C
:10027000821AD440202E1CD04022961BB5402B431E
:10028000581E83410720234318400025002809D029
:100290000F2200251A401C00042AD8D12300680729
:1002A0006D022D0B0124DB08034398460C4000230C
:1002B00000E60025E3E780220124120315432D0305
:1002C00098462D0B0C40044BF4E5C046FF0300009C
:1002D000FFFFFFFEFE070000FF070000F0B55746D6
:1002E0004E464546E0B40E001100F20F9246C5009E
:1002F000420F180337037400400A4E0F7F0A304341
:10030000CF4E17435A00640D520DDB0FC900B242A5
:1003100000D1E5E001267340A61AB446534500D14A
:10032000AFE0002E00DC0DE1002A3AD103000B43C0
:1003300000D0E4E06B0709D00F232B40042B05D03D
:100340002B1DAB42AD416D427F191D003B0200D415
:1003500088E0BB4B01349C4200D110E13A00B94B1C
:1003600051461A4001235007ED0852026405054327
:10037000120B640D0B400021280012030D0D120B0F
:1003800064052D0515436208AF4CDB072C40144370
:10039000640064081C4321001CBC90469946A24698
:1003A000F0BDA74B9C42C5D080231B041843634675
:1003B000382B00DDFDE01F2B00DD30E162462023FD
:1003C0009B1A02009A40664690460A009940F24005
:1003D00046464B1E99413243114363460200DA40C0
:1003E000691A8D429B410D00BA1A5B42D71A3B0233
:1003F00035D57A02530A98464346002B00D1C4E013
:10040000404600F0FBFB0300083B1F2B00DDC5E06E
:1004100020222900D21A4746D1409F400A009D4021
:100420003A439C4200DDC0E01C1B631C1F2B00DD17
:10043000E4E0202114002800C91AD8408C408D40E7
:100440000443DA40681E854117002543002471E704
:10045000424663461A4300D14CE2674645466B0765
:1004600000D069E7012351467807ED08FA080B40F0
:10047000054373498C4238D012036405120B640D96
:1004800079E7002E00DC9AE0002A47D06C4A9442BB
:1004900000D14FE78022120410436246382A00DC64
:1004A00008E10143481E81410022C9B24919D2190D
:1004B000A942BF410D007F42BF183A0200D442E179
:1004C0005F4A0134944200D14EE101205D4A69083F
:1004D0003A4028400843D507054357089A4629E77C
:1004E00006000E4300D017E714E72900114300D19E
:1004F000F9E1802109030A431203120B3BE70123B0
:100500005B429846C4446346002B72D1691A8D42FF
:100510009B413F1A5B42FF1A0D0068E702000A4345
:1005200000D107E7012252429046C4446246002AA5
:1005300000D0E6E06918A942B6413F187642F719A3
:100540000D00BAE7002E00D080E0621C5205520D6B
:10055000012A00DCF9E06A1A91464D45B6413A1A83
:100560007642921B9046120200D499E04D1BA9429C
:100570008941C71B49427A1A90469A463CE752463F
:100580000123002513400022F5E6280000F036FB89
:1005900020300300083B1F2B00DC39E72A002838F5
:1005A000824000259C4200DC3EE7264FE41A1740BB
:1005B000C0E60143481E81410022C9B210E7002E67
:1005C00000D0F1E0621C94465205520D012A00DC75
:1005D000A0E01B4A944500D1C5E06918A9429241A8
:1005E0003F185242D2194908D5070D4357086446AF
:1005F000A0E6134B9C4200D0D9E69BE611001F3CBD
:10060000E1400C00202B00D180E04021CB1A9A4021
:1006100015436A1E95410027254300241FE76346C2
:100620000200203BDA406346202B71D0402366460F
:100630009B1B98400143481E814111430022CFE695
:10064000FF070000FFFF7FFFFFFF0F80002C48D057
:10065000CA4CA24200D1A2E07442A14680242404E4
:1006600027434C46382C00DDDBE01F2C00DD44E145
:100670004E462024A41B3E00A640A246B0464C464F
:100680002E00E640B4464646644626435446A540FE
:100690006C1EA54134002C434D46EF400D1B28E055
:1006A0004A4643464D461A4300D0A5E6002300249F
:1006B0000025DEE61F2A5ADC66462022921B060031
:1006C00096409146B04662460E00D64042461643DA
:1006D0004A4691404A1E9141020060463143C24061
:1006E000E4E63C002C435AD0F443A146002C52D1FE
:1006F0004D1BA9428941C71B49427F1A14009A46E3
:1007000075E69E4A944200D0C7E613E600227FE7D2
:1007100000208FE7002C00D0C8E03B002B4300D125
:100720000FE103000B4300D104E66918A9429B4185
:100730003F185B42DF193B0200D41AE1904B0D00D9
:100740001F406446F6E59A4689E63A002A43002CA3
:100750005CD1002A75D102000A4300D1CAE007002B
:100760000D009A46E6E564460022002581E66246D1
:100770000600203AD6406246B046202A00D1B7E0B3
:1007800040226646921B904001434246481E8141EA
:10079000114300228AE6794CA24200D061E70700AB
:1007A0000D0014009A46C5E5002C41D13C002C43B5
:1007B00078D0F443A146002C20D0704CA24271D0D6
:1007C0004C46382C00DDB2E01F2C00DDBCE02026BA
:1007D000341BA2463C005646B4404E46A0462C0070
:1007E000F440A446444666463443A4465446A540D5
:1007F00064466E1EB54125434C46E7406D188D4258
:1008000089413F184942CF19140056E6002A2FD1DA
:1008100002000A4300D184E007000D009A46574CBD
:1008200088E53D436F1EBD41ECB200270D1B60E71C
:10083000524CA24236D0744280263604A146374339
:10084000BEE702000A4300D174E56A1A90464545A6
:10085000B6413A1A7642921B9446120200D4F7E54A
:100860004D1BA9428941C71B49427F1A9A4661E53F
:1008700002000A433AD0ED087C072C438025FA0891
:100880002D032A4208D0C7082F4205D145072C0066
:100890003A009A46C9080C43670FD200E500174397
:1008A000364C47E507000D00140043E53A002A43A3
:1008B00043D002000A4319D0ED087C072C43802561
:1008C000FA082D032A4207D0C6082E4204D1470752
:1008D0003C003200C9080C43D700620FE500174303
:1008E0009A46264C26E50022002544E5234C21E5C6
:1008F000002049E700230025BBE54C463E00203C94
:10090000E6404C46B446202C31D040244E46A61B2F
:10091000B7403D436C1EA54164462C4300270D1B88
:10092000E7E6802200231203144C0025A1E53D4395
:100930006F1EBD410027EDB260E707000D000F4CB0
:10094000F8E407000D00F5E44E463C00203EF4407C
:10095000A0464C46202C0ED040244E46A41BA74057
:100960003D436F1EBD4144460027254346E700270F
:10097000CFE70D0073E50027F2E7C046FF07000050
:10098000FFFF7FFF0B0330B5134D1A0B4B005B0DC0
:10099000C90F0024AB4211DD104CA34210DC8024AF
:1009A000640322430E4CE41A1F2C0CDD0D48C31ABD
:1009B000DA4013005C42002900D11C00200030BD49
:1009C000094BCC18FAE7E040084CA44663449A402F
:1009D00013000343EEE7C046FE0300001D040000C1
:1009E0003304000013040000FFFFFF7FEDFBFFFF57
:1009F00070B5002830D0C317C4185C40C50F200064
:100A000000F0FCF8174B184A1B1AD21A1F2A18DDDF
:100A1000164AD21A9440002224035B05240B5B0D76
:100A20000021100024030A0D1205240B1443104A60
:100A30001B0514401C436400ED0764082C4321008F
:100A400070BD210091400A000B21081AC4405B05CB
:100A50002403240B5B0DE3E7002500230024002280
:100A6000DEE7C0461E04000033040000130400004B
:100A7000FFFF0F8070B5051E28D000F0BFF8154BA2
:100A8000154A1B1AD21A1F2A16DD2C00134A0025FC
:100A9000D21A94405A052403240B520D002124033A
:100AA0000B0D240B1B0523430D4C12052340134350
:100AB0005B002800590870BD0B212C00081AC440A7
:100AC000954024035A05240B520DE7E70022002429
