:020000021000EC
:10B0000000800020C5D3010005D4010007D4010051
:10B010000000000000000000000000000000000030
:10B0200000000000000000000000000009D4010042
:10B0300000000000000000000BD401000DD401004E
:10B040000FD401000FD401007DD801000FD40100FE
:10B050000FD40100000000000FD401000FD4010044
:10B060000FD401000FD401000FD401000FD4010050
:10B070000FD401000FD401000FD401000FD4010040
:10B080000FD401005DD401000FD401000FD40100E2
:10B090000FD401000FD401000FD401000FD4010020
:10B0A0000FD401000FD401000000000000000000D8
:10B0B0000000000000000000000000000000000090
:10B0C000054B0648033310B51B1A062B03D9044B56
:10B0D000002B00D0984710BD3C2100203C210020CF
:10B0E000000000000648074910B5091A8910CB0F67
:10B0F0005918491003D0044B002B00D0984710BDBD
:10B100003C2100203C2100200000000010B5074C2D
:10B110002378002B09D1FFF7D3FF054B002B02D07A
:10B12000044800E000BF0123237010BD3C21002033
:10B1300000000000802D0200094B10B5002B03D049
:10B140000849094800E000BF08480368002B02D105
:10B15000FFF7C8FF10BD064B002BF9D09847F7E763
:10B160000000000040210020802D02003821002036
:10B1700000000000164B002B00D1144B9D464022CE
:10B1800092029A1A924600218B460F461348144A9F
:10B19000121A04F039FD0F4B002B00D098470E4BCC
:10B1A000002B00D098470020002104000D000D481E
:10B1B000002802D00C4800E000BF04F0D3FC2000BF
:10B1C000290002F073FB04F0A7FCC0460000080051
:10B1D0000080002000000000000000003C21002052
:10B1E00050240020000000000000000010B5040002
:10B1F00000F0CAFCC6235B00E0580433E358143067
:10B20000C01A142102F080FC080010BD08B4034BE2
:10B210009C46034BC01A08BC6047C046EDB1010014
:10B220007801000010B5040000F0AEFCC8235B00FC
:10B23000E058043BE358984204D020189530FF3082
:10B24000007801E00120404210BD000008B4034B2B
:10B250009C46034BC01A08BC6047C04625B201009B
:10B260007801000070B50400C82500F08DFCC623ED
:10B270006D005B006059E358984209D001301421F9
:10B2800002F042FC615161189531FF31087801E00C
:10B290000120404270BD000008B4034B9C46034BA4
:10B2A000C01A08BC6047C04665B2010078010000C2
:10B2B00010B500F093FC10BD70B504000D0000F057
:10B2C00063FC87239B00E01800F0D8FA0026B04208
:10B2D0000FD0D4214900635801365A1CE318AD330E
:10B2E000FF3362501D70142A03D123682000DB6EE7
:10B2F0009847300070BD000008B4034B9C46034BD8
:10B30000C01A08BC6047C046B9B20100780100000D
:10B31000F7B5040000F0F2FD2300FA22002579338E
:10B32000FF3392005D609A603B4B26001A000832A2
:10B3300022601A00883262601A00A032A2602200E5
:10B34000C136FF36C833FC32D3673000334900F0D2
:10B35000A2FE2000324FC9303900324AFF3000F0DF
:10B36000B5FA2300E133FF330193042214232E495D
:10B37000019800F057FA81239B003900E0182B4A0E
:10B3800000F0A4FA87239B00E01810221423284918
:10B3900000F048FA90239B00264A3900E01800F09C
:10B3A00095FAD4235B00E550183BE550043BE5508B
:10B3B000043BE550204B310020001C6000F051FDA3
:10B3C0002100CD31FF31200000F04BFD300000F0B6
:10B3D00076F90100200000F0E3FB2100E5312000B8
:10B3E000FF3100F03EFD82239B00E118200000F0B9
:10B3F00038FD124A2900019800F052FA88239B0078
:10B40000E118200000F02DFD91239B002000E118A1
:10B4100000F027FD2000FEBDA8250200F824020050
:10B42000222502001D250200272502004C250200CE
:10B43000662502008B25020058210020A5B40100DA
:10B440000FB410B5029800F0EBFB10BC08BC04B0C0
:10B45000184710B5040001F0DBFFC4235B00E3587C
:10B460006433984203D2200000F08EFB03E023688F
:10B470002000DB6E984710BDF8B5C62705000C000C
:10B480008E187F00B4420CD0EB591421581C02F0E6
:10B490003BFBE951691823789531FF310B7001347A
:10B4A000F0E7F8BD094B70B51D680B680C0008008B
:10B4B000DB689847236806001B6920009847310025
:10B4C00002002800FFF7D8FF70BDC04658210020B9
:10B4D00070B5D4256D0042590400002A12D0010035
:10B4E0008723AD319B00C018D2B2FF3100F083F941
:10B4F00001F08EFFC4235B00E05000232000635165
:10B5000000F042FB70BD000008B4034B9C46034BA7
:10B51000C01A08BC6047C046D1B4010078010000E1
:10B52000164B10B51A00083202601A0088324260C9
:10B530001A00A03282600200C833FC32D367902325
:10B540009B000400C01800F0B3F987239B00E018AB
:10B5500000F03AF981239B00E01800F0A9F92000DF
:10B56000E130FF3000F030F92000C930FF3000F04A
:10B570009FF9200000F07AFC200010BDA8250200F1
:10B5800010B50400FFF7CCFF200002F0A3F9200063
:10B5900010BD000010B5064C092302220A2120002C
:10B5A000FFF7B6FE034A0449200004F07FFA10BDFD
:10B5B0005C2100208020002021B5010010B5074C3F
:10B5C0000749200000F0EFFAE1210648490201F0A6
:10B5D000DBFF2000FFF734FF10BDC0465C210020D8
:10B5E0001D250200DC23002070B50E4C2000FFF763
:10B5F0005FFE002814D02000FFF734FE0A4D00281B
:10B6000004DDC1B2280001F0C7FFF4E7280002F012
:10B6100005F8002804DDC1B22000FFF74DFEF5E774
:10B6200070BDC0465C210020DC23002010B503481B
:10B63000FFF70FFFFFF7D8FF10BDC0465C210020C9
:10B6400070B5002504AC24780573A94205D10A4BD6
:10B650000A4A23210A4804F031FA0160094992009C
:10B6600052589B0002715B588371A3005B58856040
:10B6700043710223C37170BDD226020095260200D9
:10B68000E02602004C29020007B58022074BD205B4
:10B690001A6000229A6002321A7101230092044952
:10B6A000D2180448FFF7CCFF07BDC046B4230020E2
:10B6B00000300040C0230020016082807047006895
:10B6C00070478088704729DF704728DF704703681C
:10B6D00018680130431E9841C0B2704780235B0553
:10B6E00010B51969006802F089F904002000FFF71D
:10B6F000ECFF1128FAD010BD70B51C0005000E003B
:10B70000FFF7ECFFA408220031002868FFF7DBFFF9
:10B710001128F8D070BD002210B500689A4203D2FB
:10B7200084588C500432F9E710BD37B50625040063
:10B730002A000021684604F067FA2A00201D6946A5
:10B7400004F04AFA431E9841C0B23EBD10B5043021
:10B75000062204F050FA10BD10B504300622002174
:10B7600004F052FA10BD10B504000160FFF7F4FFB9
:10B77000200010BD807A7047C0687047007C704719
:10B7800000207047C368585C704770B50D00110009
:10B7900002680400D6691A00B0470123A374A369A4
:10B7A000002B02D021002800984770BD70B504001E
:10B7B00008000D0005F098F82368C2B22900DB6983
:10B7C0002000984770BD0000054B10B508330400F9
:10B7D0000360C068002801D004F0F4F9200010BD17
:10B7E0004827020010B50400FFF7EEFF200002F02A
:10B7F00071F8200010BD10B50400807A031C90423F
:10B8000000D9131CDAB22374E06804F0F4F9636918
:10B810000120002B04D01A682100126818009047FC
:10B8200010BD0000F8B51D00040017000430104AD8
:10B8300000F09CF80F4B083323602B1C142D00D90B
:10B84000142300212000A372E16021746774A174A5
:10B85000E17461610C221830DEB204F0D5F9002DDC
:10B8600003D0300004F0A4F9E0602000F8BDC04629
:10B870000328000048270200407C7047C07C7047C6
:10B8800010B5C274531E9A4102239A1A06329A4086
:10B8900013580C00002B02D001002000984710BD67
:10B8A0000B2902D8063189000A5070474161704760
:10B8B000704700697047007D70470369585C7047A6
:10B8C00010B5040002F006F8200010BD70B5150098
:10B8D000A42204009201043000F048F8044B2561D2
:10B8E00008332800236004F0FFFF2075200070BD9E
:10B8F00078270200704770477047002070477047F4
:10B9000070470020704700207047002070470020DB
:10B9100070470020704700207047002070470020CB
:10B9200070470020704700207047002070470020BB
:10B930007047704770477047704710B5040001F0BA
:10B94000C9FF200010BD0000064B01220833036030
:10B950006423838000238272C3800381C3600361F8
:10B960007047C046942702000161704710B504007B
:10B97000FFF7A2FE024A200013780133137010BDB6
:10B98000D4230020014B18787047C046D4230020F0
:10B9900010B5C06803681B6A984710BD08B4024B15
:10B9A0009C46043808BC604791B9010010B5C068D6
:10B9B00003685B6A984710BD08B4024B9C46043884
:10B9C00008BC6047ADB9010010B5C06803689B6A48
:10B9D000984710BD08B4024B9C46043808BC604729
:10B9E000C9B9010010B5C0680368DB6A984710BD8B
:10B9F00008B4024B9C46043808BC6047E5B9010016
:10BA000010B5C06803681B6B984710BD08B4024BA3
:10BA10009C46083808BC604701BA010010B5C068F0
:10BA200003685B6B984710BD08B4024B9C4608380E
:10BA300008BC60471DBA010010B5C06803689B6B65
:10BA4000984710BD08B4024B9C46083808BC6047B4
:10BA500039BA010010B5C0680468E46BA04710BD96
:10BA600008B4024B9C46083808BC604755BA010030
:10BA700010B5C06803681B6C984710BD08B4024B32
:10BA80009C46083808BC604771BA010010B5C06810
:10BA900003685B6C984710BD08B4024B9C4608389D
:10BAA00008BC60478DBA010010B5C06803689B6C84
:10BAB000984710BD08B4024B9C46083808BC604744
:10BAC000A9BA010010B5C0680368DB6C984710BDC7
:10BAD00008B4024B9C46083808BC6047C5BA010050
:10BAE0000300FC335B6F10B5002B02D05D30FF30DC
:10BAF000984710BD0300FC339B6F10B5002B02D09C
:10BB00005D30FF30984710BD0100100010B504688B
:10BB10001A005D3102AB1B78FF31646AA04710BD8B
:10BB20007047704770B5050004005D35FF351100A2
:10BB30002800FC34FFF70AFEE36E002B01D028003A
:10BB4000984770BD0300FC335D301B6FFF3010B5AC
:10BB50000400002B00D098472000FFF7FDFD10BD2A
:10BB6000010010B55D311000FF311A00FFF788FEAB
:10BB700010BD010010B510005D311A0002AB1B783A
:10BB8000FF3100F06BFA10BD10B5C0680368DB68C8
:10BB9000984710BD10B5C06803681B69984710BD71
:10BBA00088300160704798300160704770B50600BA
:10BBB000A436336804000D00002B05D100F024FAF0
:10BBC000800003F0F5FF30602000A8300378326871
:10BBD0009B009D5003780133037070BD10B50400C5
:10BBE000FFF7D2FF20005D30FF30FFF79EFD10BD54
:10BBF00010B50400FFF7C6FE800003F0D9FF230054
:10BC00009C331860103303600C334360243383602B
:10BC10002033C3600C3303610523A034237010BDAF
:10BC200030210023F0B5AFB002AA52181370030000
:10BC30008C331968040000291DD008A800F033FADD
:10BC400008A800F061FA022383429B415B4216AAD6
:10BC5000143305001070537008A800F053FA1A2628
:10BC60000100522002AB2A00761BC01803F0C3FF6C
:10BC7000F6B2012501E01C260D0023008833196867
:10BC8000002924D008A800F00EFA08A800F03CFA19
:10BC9000431C0700B3421ADA1F231A006A4316A88E
:10BCA00017540622022F00D8043A6B43C3185A7067
:10BCB00008A8079300F026FA079B01003A00981C99
:10BCC00003F099FF023E0135F61BEDB2F6B22300F8
:10BCD00090331968002915D01A79002A12D0022E43
:10BCE00010D9531CB34201DB023EF2B21F2068435D
:10BCF00016ABC2541818FF234370023003F07BFFC9
:10BD00000135EDB2230098331E68002E22D030009A
:10BD100004F0EAFDC0B21D2804D8302202AB9B1803
:10BD2000187004E030211D2302AA5218137030222B
:10BD300002AB9B181A78092382428041312140428C
:10BD4000181A02AB5B181870322002AB3100C01811
:10BD500003F051FF27009C373B68002B02D12000E5
:10BD6000FFF746FF002307932300A0331B78079AB1
:10BD70009A4201DB00271EE0079B3A689B009E5811
:10BD80003000FFF79EFC2C4B984205D1301E00D0AE
:10BD9000301F211DFFF78AFD079B0133E3E72300D6
:10BDA000A4331B68BA00D6583000FFF78AFC224B38
:10BDB000984206D001372300A8331B789F42EEDB60
:10BDC00007E0301E00D0301F2100083100F059F983
:10BDD000F0E7002B0BD021002931FF312000FFF7C5
:10BDE000E5FE21003531FF312000FFF7DFFE302274
:10BDF000210002AB9B18A8311B780978E0685A1E15
:10BE00009341026804912100A4310968DBB20391D7
:10BE10002100A0310978029121009C31096801912B
:10BE20000EA900919668290016AAB047E068036839
:10BE30001B6D98472FB0F0BD0328000070B50600B9
:10BE40009C36336804000D00002B01D1FFF7D0FEB3
:10BE5000A034237832689B009D50237801332370EF
:10BE600070BD10B5FFF7EAFF10BD0000184B10B50C
:10BE70001A00083202601A000400883370328360AE
:10BE80004260FFF787FE2300A4331868002801D022
:10BE900003F098FE23009C331868002801D003F0BB
:10BEA00091FE20003130FF3000F0B4F8601DFF300B
:10BEB000FFF78AFC2000D830FFF786FC2000B43062
:10BEC000FFF782FC2000103000F012FE200010BDB1
:10BED0001C28020010B50400FFF7C8FF200001F085
:10BEE000F9FC200010BD07B56B46D9800633D83069
:10BEF00002221900FFF77FFC07BD0000354BF7B5A4
:10BF00001A00083202601A008833836003000400BC
:10BF10007032103342601800009301F02FFA2300B2
:10BF20000025200088335D609D601D731D615D618B
:10BF30001D76DD611D6004331D772749AC3000F0AC
:10BF4000AAF82300B4330193022213232349019852
:10BF5000FFF768FC022320001A002149D830FFF7C0
:10BF600061FC20001F4FFC30390000F094F81E4E99
:10BF7000601D042331002022FF30FFF753FC200016
:10BF800029303900FF3000F07EF8200031303100D8
:10BF90002022FF3000F046F820005D302100FF3005
:10BFA000FFF7E1FB2000009B6930E36010222900CD
:10BFB000FF3003F029FE0D490198FFF7F7FB290038
:10BFC0002000FFF790FFE0682100FFF7CDFC200084
:10BFD000FEBDC0461C280200F8270200FD27020013
:10BFE00002280200072802000C2802001128020083
:10BFF00010B50400FFF760FB024A200013780133FC
:10C00000137010BDD5230020014B18787047C0462F
:10C01000D5230020704710B5040001F05BFC200020
:10C0200010BD000070B5040015000430094AFFF788
:10C03000DFFF00212000084BA57208332360E31CBA
:10C04000E1720422D9772830616203F0DDFD20001F
:10C0500070BDC04603280000C428020070B504006B
:10C06000C3720D000C3011001A0003F0C4FD012250
:10C07000E31CDA77A36A002B02D02100280098473E
:10C0800070BD41627047A02210B504009201FFF715
:10C09000AFFF200010BDA02210B504009201FFF7F1
:10C0A00065FC200010BDF0B50023050085B003AE8F
:10C0B0002960037508000F0033707370B37004F0CB
:10C0C00013FC441E002C1ADB2B7D01930F2B16D87A
:10C0D0003A5D2D2A01D101340FE03B19013B1B7859
:10C0E0007270002110223000337004F089FC019B33
:10C0F000EB1818712B7D01332B75023CE2E7280009
:10C1000005B0F0BD04307047007D704771DF7047A7
:10C1100072DF704773DF704775DF704776DF7047F7
:10C1200077DF704778DF70477ADF70477CDF7047D2
:10C130007EDF70477FDF704786DF704790DF704794
:10C1400092DF704796DF704798DF704799DF70473E
:10C15000A0DF7047A2DF7047A3DF7047A4DF7047FE
:10C16000A6DF7047A9DF704760DF704761DF704767
:10C1700062DF704763DF704753DF704710DF70473F
:10C1800011DF70475C300078431E9841C0B27047A1
:10C1900003000200002030B56D331C78A04213DA92
:10C1A000156F0301EB181D688D420BD10020D98952
:10C1B00081420AD01B7B9B0707D57432137801306C
:10C1C000584002E00130E9E7002030BD03000022C2
:10C1D00070B56D331C78A24219DA056F1301EB18A4
:10C1E0001D688D4211D10022D989914210D01B7B4C
:10C1F0009B070DD50300012474331C70008FFFF7DB
:10C20000A1FF42424241D2B202E00132E3E7002202
:10C21000100070BD02000300002030B56D321478AC
:10C22000A0421BDA1D6F0201AA1815688D4213D1B6
:10C230000020D189814212D0127B110704D57433BA
:10C240001B78013058400AE0520708D55C33187853
:10C25000431E9841C0B202E00130E1E7002030BD4A
:10C26000F0B587B0050001936D3006780020B0422C
:10C270002FDA2F6F04013C1927688F4227D1002045
:10C28000E689864226D0217B0C24214222D02F0031
:10C290005C373C7884421DD002230907C90F5B1A22
:10C2A00003A90B706B469B888A60CB802B00012210
:10C2B0007433013C1A7048704E8088803C70288F1F
:10C2C000FFF742FF030058425841C0B202E001307C
:10C2D000CDE7002007B0F0BD0300002230B56D337C
:10C2E0001C78A24212DA056F1301EB181D688D420B
:10C2F0000AD10020DA89824209D0187B3023184005
:10C30000431E9841C0B202E00132EAE7002030BD8E
:10C310007FB50300020000206D331C78A0422ADAAA
:10C32000156F0301EB181D688D4222D10020DC89B6
:10C33000844221D030211B7B0B421DD0022669464E
:10C34000DB06DB0F8D19F31A01A92B80487001233E
:10C3500088801000E41874300B7003704C80CE801D
:10C360008D60108FFFF7F0FE030058425841C0B2B5
:10C3700002E00130D2E7002004B070BD10B50368C0
:10C380001B6C984710BD0300002230B56D330400CC
:10C39000187885B0824227DA256F1301EB181D68E3
:10C3A0008D421FD10020DA8982421ED0197B3023B2
:10C3B00019421AD06B4658809D1C012301A9D2183E
:10C3C0004A800222CA80220074320B7013704870B7
:10C3D00088808D60208FFFF7B7FE030058425841D8
:10C3E000C0B202E00132D5E7002005B030BD0B003D
:10C3F00010B5273314DB0B001D3313DB0B00133395
:10C4000012DB0B000F3311DB0B000B3310DBCB1DEA
:10C4100010DBCB1C10DBCB17581AC00F80000DE0CF
:10C4200028200AE01E2008E0142006E0102004E086
:10C430000C2002E0082000E00420404240B2FFF758
:10C440006FFE43425841C0B210BD10B51321008F9A
:10C45000FFF764FE10BD13B504006846FFF756FEF3
:10C460002069002805D06A4603680132DB69210093
:10C47000984713BD002337B5040001A80193FFF7C7
:10C480007BFE019803F0EEF90022074B02F0E6FB79
:10C4900003F062FA021C2069002803D001680D6ACB
:10C4A0002100A84737BDC0460000D03F704710B5F7
:10C4B000040086B018220021684603F0A5FB002383
:10C4C000A27A9A4200D103336A461370A0880A21E7
:10C4D000000101F01DFB6B4618826846FFF71AFE4B
:10C4E00006B010BD0300F0B55D330C001A780500EE
:10C4F0000023142191B0934262DA0E005E43286E4D
:10C5000086193068A04209D12000FFF7B5F9012350
:10C51000184255D07368002B02D151E00133EAE78D
:10C520002F00290033373B7814311A0008A80193F3
:10C5300003F061FB236820001B699847019B0430CE
:10C540001818C3B201931F2B3AD87068FFF7B7F8D9
:10C55000010002A8FFF7A7FD236820001B693E78B1
:10C560009847182202AB9B18033098553E7808ABC9
:10C570009B19023A02A85A70FFF7C4FD023608ABB5
:10C5800001000222981903F036FB3E7808AB04360E
:10C590009E1923682000DB689847236807001B6901
:10C5A0002000984739000200300003F024FB0023EC
:10C5B00001991A0008A8FFF7ABFD6C63012000E0A9
:10C5C000002011B0F0BD0A21F0B5D9B004ABC918F4
:10C5D0008E2311AE5B00040030000B80FFF7C6FD18
:10C5E000011E00D067E23388302B00D149E111D819
:10C5F000112B5BD004D8012B21D0102B25D05AE26F
:10C60000142B00D1CEE0192B00D1DAE0132B00D08F
:10C6100051E2A3E0382B00D1FFE106D8322B00D144
:10C620007EE1362B00D1DEE145E2502B00D1DBE08C
:10C63000522B00D11FE1392B00D03CE211E25C34D7
:10C640002278337AD318237035E2B08809AD208779
:10C650002900FFF78DFD23002A785C331A702069CA
:10C66000002806D03D22036804A952181B68210047
:10C670009847E288052A0FD9C821238909018B42EE
:10C680000AD86B800023AB809133FF332A80EB8084
:10C69000208F2900FFF740FD230064331B78002B17
:10C6A00000D108E2208F002201211CE101235B421E
:10C6B0002387230005005C33187023005D331B784B
:10C6C0009D4218DA142600276E43236E9E19377494
:10C6D00077743068FFF7D2F8B8420AD02069B842C0
:10C6E00007D0036832685B6921009C463B006646C0
:10C6F000B0470135E1E72069002803D00368210035
:10C700005B68984700250C26230064331B789D4204
:10C7100004DB0023250018006D350AE03000684373
:10C72000A36E042218180830002103F06DFA0135B9
:10C73000EAE72A78934208DA216F1A018918087308
:10C74000216F01338A18D081F3E72300002274336C
:10C750001A70236820009B699847ACE1E0680028C4
:10C7600000D1A2E1FEF7B3FF002800D09DE107ADA4
:10C7700005220021280003F047FA01233022EB7044
:10C7800013432B70072300216B700933AB70A36D2B
:10C790000D9109930E910F910A910B91208F09AB86
:10C7A0002A0086E1A56D338A6A8A208F9A4203D1D6
:10C7B0000B000A00290001E00B000A00FFF7BCFC97
:10C7C00079E1327A002A00D075E1E068002804D0CF
:10C7D00021001C233C31FEF78FFF2069002800D187
:10C7E00069E103689B68FBE00500F388039323007D
:10C7F0005D331B789D4200DB5DE114276F43236EA0
:10C80000039ADF193B8993420CD12069002800D19B
:10C8100051E1327C036800921D69462304AA9B18EB
:10C820003A683DE1BB89039A934222D1F37CB27C02
:10C830001B021343012299B213403B7401234A089F
:10C840001A4002330B407A745A1E93413868DBB2A7
:10C850000493FFF713F8049B98420AD0206900283C
:10C8600000D128E103683A685D692100049BA8476C
:10C8700021E10135BBE7208F0B000A00FFF772FCB6
:10C8800019E1F588002D31D14227B389039304AB18
:10C89000FF18039B9D421EDA230064331A7800239D
:10C8A000934215DA0C205843A16E0818B9788C46CB
:10C8B00081798C450AD139888C4681888C4505D18F
:10C8C000391D0422083003F096F901E00133E7E74F
:10C8D00001350837DDE70022039B208FDB00F618C7
:10C8E000B189013189B2FFF729FCE4E0230005009A
:10C8F0000C2164331A78954200DBDCE00B006B43BB
:10C90000A06EC3181889002808D05889002805D0BF
:10C91000220008336C321570190057E00135EAE740
:10C920002000F3886C30002B3DD10C21422203788B
:10C93000A76E4B43FB189B68099304ABD2180A23DC
:10C94000B58905916B430E33F318039323006D33C0
:10C950000493039B9A4221D00025049B1B789D429F
:10C9600017DA266F2B01F318059906784E4359689C
:10C97000F6598E420BD191789E7AB14207D1118837
:10C980001E89B14203D116791E731689DE810135E5
:10C99000E3E7158909AB1D800A32DAE7208F09A980
:10C9A000FFF7CEFB87E0230064331D780C23027869
:10C9B00001325343AA420EDAA16EC9180E89002E25
:10C9C00006D04E89002E03D002700831208FE7E791
:10C9D00001320C33EEE7206900286CD00368DB6875
:10C9E0002100984767E02300743318700623F2880B
:10C9F000FF339A4202D1E368002B19D123006D3333
:10CA000018780023B189834255DA256F1A01AA18D4
:10CA1000D5898D4239D00133F5E72300743318707E
:10CA20000623F288FF339A4245D1E368002B42D0B7
:10CA300009AD0522280003F0E7F80121EA782B78F8
:10CA40000A43EA7070220B439343403A13432B701E
:10CA500007236B700933AB70208F2900FFF768FB49
:10CA600029E0B37BB589022B03D1208F2900FFF782
:10CA70006DFB23006D33197800238B421BDA206F86
:10CA80001A018218D089A8420DD12069002812D03D
:10CA9000317C036800919D69462304A912685B18E4
:10CAA0002100A84707E00133E7E7002385211A00AA
:10CAB000208FFFF73FFB59B0F0BD10B50400FFF722
:10CAC0005FFB206F002801D003F07CF8A06E0028E7
:10CAD00001D003F077F8206E002801D003F072F83F
:10CAE000220000235D326D341370D371237010BDAA
:10CAF00010B50400044B08330360FFF7DEFF20008D
:10CB0000FEF71AFF200010BDD828020010B504005F
:10CB1000FFF7EEFF200000F0DDFE200010BD00005A
:10CB200013B56C4612886180228001006A46024873
:10CB30000193FFF713FB16BDFFFF0000F0B5F3B044
:10CB400002937AAB1B78070007937CAB1B780191AB
:10CB50001400CF4904220EA8099303F04CF80021D9
:10CB60000EA8FFF70BFB13ADCA4B142200212800BF
:10CB700001260F9303F048F80A230FA928002B8001
:10CB80002E732E72FFF7F0FA2823002511A80380D8
:10CB9000DB1843804133FF33C3808580FFF7C4FA3D
:10CBA0002800FFF7BDFA02233B750433BB753B0039
:10CBB000032233337E751A70019BAB421FD0AC4207
:10CBC0001DD01F23019A5343E618B44217D03D00ED
:10CBD0003335287823783A18013313756378023097
:10CBE000C0B25375287038182278A11C143003F095
:10CBF00002F823782A781F34D3182B70E5E7002336
:10CC0000029A9A421DD0789A9A421AD01F2615008D
:10CC1000029A5643AA190192019AAA4211D02E787B
:10CC20002AA8721CC2546978C2180233DCB251704F
:10CC30000019A91C3200341902F0DDFF1F35E3B2E0
:10CC4000EAE73A0038003332117814302AAAFFF7A5
:10CC50005FFA0020FFF766FA0024079B9C420EDA79
:10CC6000799AA300D058FEF72CFD8B4B984204D143
:10CC70003A005D321378013313700134EDE73B0065
:10CC80005D3318780338C0B218701423584302F08B
:10CC90008FFF00230BAA1380799A386602920193C2
:10CCA00008930493019B079A934200DB11E2029BD5
:10CCB0001D682800FEF703FD01001DA8FFF7F3F92A
:10CCC0001DA8FFF71FFA04001DA8FFF71DFA022890
:10CCD00008D1637821781B0210AA0B43138001232B
:10CCE000937014E032AE10222100300002F083FF76
:10CCF000637B227B1B02134310AA138000231A219B
:10CD0000737333730AABC9183000FFF733FA280086
:10CD1000FEF7D7FCA0239B01984212D12800FEF712
:10CD2000CEFC5E4903F0D6FD002800D1CAE1280000
:10CD3000FEF7C5FC5A4903F0CDFD002800D1C1E142
:10CD400082E22800FEF7BDFC534B984200D048E138
:10CD50002C1E00D02C1F251D2800FEF7B0FC5149C9
:10CD600003F0B8FD002813D10122102332AD134384
:10CD70002B7023682000DB689847236806001B6936
:10CD800020009847310082B22800FFF7CFF999E1DF
:10CD90002800FEF794FC444903F09CFD002807D1CD
:10CDA00023682000DB6898470088FFF7BBF989E11A
:10CDB0002800FEF784FC3D4903F08CFD002800D1DB
:10CDC00080E12000FEF758FD236803901B692000D6
:10CDD00098470AABD88014230026049A31005A439E
:10CDE0003B6E05929B18089A1C605A601E745E7414
:10CDF0001C2223A802F008FF01226421039B934315
:10CE00000AAA521813703023039A1A4213D00CAD99
:10CE100003223100280002F0F7FE102301221A43FA
:10CE20002A70012213436B70AB7805329343043AA6
:10CE30001343AB7028950DAD03220021280002F0AA
:10CE4000E3FE3223039A1A4212D0FA68233B002AE7
:10CE500006D001212A789A430A431340202205E094
:10CE600001212A789A430A431340102213432B705E
:10CE70000C23039A1A4223D0FA6803330DA9002A1F
:10CE800016D001204A789A4302431340202215E02D
:10CE9000D42802008020002003280000F827020088
:10CEA00007280200FD270200022802000C280200C9
:10CEB00001204A789A4302431340102213434B70D7
:10CEC00006220DADAB7820009343043A1343AB70B8
:10CED00023689B69984701210122AB7882438B43E9
:10CEE0001343AB70019B5B180393029B0693079A55
:10CEF000039B934238DA069B5E683000FEF7E1FB45
:10CF0000A4239B0198422FD1351E00D0351F2E1D22
:10CF10003000FEF7D4FBD34903F0DCFC002810D12D
:10CF20002B6828009B68984724902B682800DB68B2
:10CF300098472B6823AE3081DB68280098477081C2
:10CF40000CE03000FEF7BBFBC74903F0C3FC002830
:10CF500004D12B6828009B6898472690039B0133D7
:10CF60000393069B0433C1E718AE1422002130005E
:10CF700002F04AFE10AB18930DAB73600AABDB886E
:10CF800020003381236800259B689847059A3B6EF3
:10CF9000B0819B180833320023A928003561FFF7C0
:10CFA000D9F80AABDB88AB4216D00AAB9A1D1388BE
:10CFB0009D4208DA236829005B692000984732AB5C
:10CFC000E8540135F1E7396E059B8C4663441889B6
:10CFD000002132ABFFF7A4FD049B0133DBB20493C5
:10CFE00070E02800FEF76DFBA4239B01984269D1F5
:10CFF0002C1E00D02C1F251D2800FEF760FB994930
:10D0000003F068FC00285DD02800FEF758FB974924
:10D0100003F060FC002855D02800FEF750FB94492F
:10D0200003F058FC00284DD02800FEF748FB8E493D
:10D0300003F050FC002845D023682000DB689847A7
:10D040000DAE18AD30801422002123A802F0DCFDC3
:10D0500003220021280002F0D7FD0223AB702368D1
:10D060002000DB689847328880B2801A03000121D3
:10D07000581E8341A87888431843A870F8680E3179
:10D080002B78002800D1E6E001208B4303430B40BE
:10D0900020210B432B7010AB239318AB24932368F0
:10D0A00023AEDB683281200098470025B0810BAAAF
:10D0B000310028003561FFF74FF80DAB1B88AB42FC
:10D0C00000D0D9E0019B01330193029B043302930A
:10D0D000E8E50024099BA34220D01E002500023E63
:10D0E000F6B23400B54219DA7B9AAB00D45820006E
:10D0F000FEF7E7FAA0239B01984202D13A0064327E
:10D1000007E02000FEF7DDFA5A4B984204D13A00BE
:10D110006D321378013313700135E2E73B0064335D
:10D1200018780C23584302F043FD3B00B8666D337A
:10D130001878A400000102F03BFD7B9E386733198C
:10D1400004930023029301930393049B9E426ED0A9
:10D1500034682000FEF7B3FA010032A8FEF7A3FFFF
:10D1600032A8FEF7CFFF050032A8FEF7CDFF022858
:10D1700008D16B7829781B021DAA0B431380012369
:10D18000937019E01022290023A802F034FD6B7B74
:10D190002A7B1B02134371211DAA138000230AAAB4
:10D1A0005218137001390AAA5218137022390AABA7
:10D1B000C91823A8FEF7DEFF2000FEF782FAA0239D
:10D1C0009B01984214D10C20019B00215843BB6E57
:10D1D0001B181C601D9A5A60BB6E04221818083078
:10D1E00002F012FD019B03940133DBB201931CE0BA
:10D1F0002000FEF766FA1F4B984216D1029B3A6F49
:10D200001B01D218211E00D0211F1160039951600B
:10D210001D99916000213A6FD21811733A6FD3189B
:10D22000D981029B0133DBB2029304368DE7F868A3
:10D23000002803D0FEF74BFA002831D13B683800B4
:10D240009B69984773B0F0BD0BAA10A90120FEF7A7
:10D250007FFF089536E701208B4303430B401021E5
:10D2600017E7C046222502003C290200412902009E
:10D2700046290200032800000DAA13889D4208DAFF
:10D28000236829001B692000984732ABE854013518
:10D29000F2E70BAB1888002132ABFFF741FC11E736
:10D2A00039001C2300223C31F868FEF734FAC5E748
:10D2B0000023F0B504000E0089B000930133019300
:10D2C00023005D331B78009A9A4253DA14255543A4
:10D2D000236E5D192B68B34248D1636B9E4204D123
:10D2E000236831005B6A20009847336830001B696F
:10D2F000984702ABD88033683000DB682F899847A5
:10D3000002AA030006323800002104AFFFF708FC30
:10D3100010220021380002F077FC2B893B8002AB01
:10D320000633BB602B7C002B0ED022005C321378BE
:10D33000002B08D0013B13700123BB70208F3900F4
:10D34000FEF70EFF00E001936B7C002B0ED0220055
:10D350005C321378002B08D0013B13700223BB70A2
:10D36000208F3900FEF7FCFE00E00193009B0133A3
:10D370000093A5E7019809B0F0BD000010B50400C6
:10D38000FEF7E2FA0E4B002108332360230033330B
:10D39000197001235B422387200023003C305C335B
:10D3A00061631C221970597021661972A166197483
:10D3B000597421671976A06502F026FC200010BD83
:10D3C000D828020003210A4802680A43026009487B
:10D3D00002680A4302600849084A094B9B1A03DDA8
:10D3E000043BC858D050FBDC00F048F8FDF7C2FE03
:10D3F00024050040540500408C2D020080200020B0
:10D400003C210020FEE7FEE7FEE7FEE7FEE7FEE741
:10D41000084A0949094B10B51B688858FA22190AAD
:10D420001B0618439200002300F09CFC4904C00B2B
:10D43000084310BD0405000000100140D82300205F
:10D4400070B5041E09D0FFF7E3FF050000F014F8E3
:10D45000FFF7DEFF401B8442F8D870BD0022044B6A
:10D460009A60044A13680133DBB213607047C04608
:10D47000FC100140D8230020704700002D4B10B550
:10D480001A78012A19D12C4A1268120715D12B4A91
:10D49000E0241168F0220800104021420BD12849F5
:10D4A0000968114209D12749274A11608021274A7A
:10D4B0000902116001E03028F1D01A78012A0DD15B
:10D4C0001D490968090709D1F0201C490968014074
:10D4D000402903D11A490968014223D01B68DBB2F5
:10D4E000012B25D1144B1B681B0721D1134B1A6844
:10D4F000F0231A40A02A04D1114A12681A4203D01C
:10D5000016E0D02A14D1F7E7114B1A68012A03D18B
:10D51000C022104B1A600BE00F4A1A601A68012AE9
:10D52000FCD1F5E7C1218020C900C0054250D5E7F4
:10D5300010BDC046E00F00F0E40F00F0E80F00F06F
:10D54000EC0F00F0DFFF07C004050040186C00403E
:10D5500000EC064014EC064075930000F7B5060099
:10D560000D000C008B180193019B671B9C4207D098
:10D57000336821781B683000984701340028F3D1C4
:10D580003800FEBD0120704710B503681322DB6927
:10D59000984710BD704700000369054A9950FC3355
:10D5A0001A6A002AFCD0002201201A627047C04685
:10D5B0001C050000030010B55C331A781F231340CC
:10D5C0000122110099400D4B0424D967C22103693F
:10D5D00089005C505A60DA60A0220021D200995084
:10D5E0000122074952425A50064914305A500C3908
:10D5F0005A5008315A5000F0B1F910BD04E100E072
:10D600000C0500001405000010B5143000F0B8F946
:10D6100010BD10B5143000F0B9F910BD10B51430BC
:10D6200000F0A0F910BD0000030070B55E331C7857
:10D630000269604BD45003005D331C785E4BD450BC
:10D64000030061331C785D4B012C0CD105005F3564
:10D650002E78A225ED005651050060352E78A125C3
:10D66000ED00565100E00024D4509623DB0099428F
:10D6700038D996231B01994237D996235B019942E9
:10D6800036D996239B01994234D9E1239B019942D3
:10D6900032D99623DB01994231D9E123DB0199424A
:10D6A0002FD996231B0299422DD9E1231B029942BF
:10D6B0002BD996235B02994229D9E1235B02994237
:10D6C00027D9E1239B02994225D93D4B994224D980
:10D6D000E123DB02994223D9E1231B03994221D89C
:10D6E000384B21E09E23DB021EE09D231B031BE041
:10D6F000354B19E0354B17E0EC239B0314E0344B1A
:10D7000012E0344B10E0344B0EE0344B0CE0344B61
:10D710000AE0344B08E0344B06E08023DB0403E0EE
:10D72000324B01E080235B05314900245350042330
:10D73000243953501100FC31CC600C62C1210134FA
:10D74000890014605C309460535003781F202200DD
:10D75000D9B20840824080342648FF345BB202517F
:10D76000002B13DA0F230B40083B234C9B089B0034
:10D770001B1903242140A140FC348C40DD69A543E2
:10D78000C0248C4021002943D96111E0194C9B0829
:10D790009B001B1903242140A140C025FC348C4070
:10D7A000AD005E59A643C0248C402100314359513D
:10D7B000026070BD0C050000140500006C0500003F
:10D7C00090D0030000D0BE0E00B013000050270020
:10D7D00000A04E0000F0750000509D0000F0EB002E
:10D7E00000903A0100E0D70100B0AF0300705F077E
:10D7F0002405000000E100E000ED00E0F7B5009333
:10D8000008AB1B7800250193FA2304009B0083607A
:10D810000E4B45600833036014300F00160000F013
:10D8200087F823005C3327611E70009B084A9B0029
:10D83000995823005D331970019B20009B009A5872
:10D8400023005E33DD701A70FEBDC046CC29020095
:10D850004C290200036910B51A00FC32D26804009A
:10D86000002A0AD0A322D20099581430C9B200F07D
:10D870006AF800222369FC33DA6010BD10B5024853
:10D88000FFF7E8FF10BDC046DC230020122307B5D8
:10D89000022200930249013B0248FFF7AFFF07BD98
:10D8A00000200040DC2300207047000010B500F08D
:10D8B00015F8FFF7F9FF0120FFF7C2FDFDF77EFE27
:10D8C000FDF7B4FE024B002BFAD000E000BFF7E7F3
:10D8D0000000000010B502F075F910BDC421114A16
:10D8E00089005058104B0340C0200002034353509E
:10D8F000802391399B02FF3953501360A321802369
:10D9000001220020DB05C9005A509A60074B1039EC
:10D910005850C120022180001950403019501A601F
:10D920007047C04600E100E0FF00FFFF001001402B
:10D9300010B540220021040002F066F90023200007
:10D940002364636410BD3F23026C10B5541C234054
:10D95000446C9C4201D08154036410BD00230364D5
:10D9600043647047436C026C934206D03F21C25C13
:10D9700001330B404364100001E001204042704736
:10D98000036C406C181A00D540307047436C026C31
:10D99000934201D0C05C01E001204042704700008A
:10D9A0000A000300024330B50220002A00D130BD36
:10D9B00080221206914216D00C4A0D4C8A1804207F
:10D9C000A242F4D90B4A8A18A242F0D90A4A490065
:10D9D000490803209142EAD9064A00209142E6D143
:10D9E00058425841E3E7002BE1D0EFE70000F0FF99
:10D9F000FFFFDF7F0000F07FFFFF0F0000224308E2
:10DA00008B4274D303098B425FD3030A8B4244D306
:10DA1000030B8B4228D3030C8B420DD3FF22090248
:10DA200012BA030C8B4202D31212090265D0030B07
:10DA30008B4219D300E0090AC30B8B4201D3CB03FD
:10DA4000C01A5241830B8B4201D38B03C01A52413F
:10DA5000430B8B4201D34B03C01A5241030B8B4241
:10DA600001D30B03C01A5241C30A8B4201D3CB022C
:10DA7000C01A5241830A8B4201D38B02C01A524111
:10DA8000430A8B4201D34B02C01A5241030A8B4214
:10DA900001D30B02C01A5241CDD2C3098B4201D32C
:10DAA000CB01C01A524183098B4201D38B01C01AAA
:10DAB000524143098B4201D34B01C01A5241030921
:10DAC0008B4201D30B01C01A5241C3088B4201D3D0
:10DAD000CB00C01A524183088B4201D38B00C01A7D
:10DAE000524143088B4201D34B00C01A5241411AA4
:10DAF00000D20146524110467047FFE701B50020B1
:10DB000000F0F0F802BDC0460029F7D076E7704774
:10DB100003460B437FD4002243088B4274D303098E
:10DB20008B425FD3030A8B4244D3030B8B4228D32F
:10DB3000030C8B420DD3FF22090212BA030C8B4255
:10DB400002D31212090265D0030B8B4219D300E0F5
:10DB5000090AC30B8B4201D3CB03C01A5241830B7A
:10DB60008B4201D38B03C01A5241430B8B4201D32A
:10DB70004B03C01A5241030B8B4201D30B03C01A53
:10DB80005241C30A8B4201D3CB02C01A5241830ACD
:10DB90008B4201D38B02C01A5241430A8B4201D3FC
:10DBA0004B02C01A5241030A8B4201D30B02C01A26
:10DBB0005241CDD2C3098B4201D3CB01C01A52418D
:10DBC00083098B4201D38B01C01A524143098B4216
:10DBD00001D34B01C01A524103098B4201D30B01FF
:10DBE000C01A5241C3088B4201D3CB00C01A524124
:10DBF00083088B4201D38B00C01A524143088B42E9
:10DC000001D34B00C01A5241411A00D20146524181
:10DC1000104670475DE0CA0F00D04942031000D3A0
:10DC20004042534000229C4603098B422DD3030AF5
:10DC30008B4212D3FC22890112BA030A8B420CD305
:10DC4000890192118B4208D3890192118B4204D32E
:10DC500089013AD0921100E08909C3098B4201D3AE
:10DC6000CB01C01A524183098B4201D38B01C01AE8
:10DC7000524143098B4201D34B01C01A524103095F
:10DC80008B4201D30B01C01A5241C3088B4201D30E
:10DC9000CB00C01A524183088B4201D38B00C01ABB
:10DCA0005241D9D243088B4201D34B00C01A524192
:10DCB000411A00D20146634652415B10104601D31F
:10DCC0004042002B00D54942704763465B1000D3A9
:10DCD000404201B5002000F005F802BD0029F8D04F
:10DCE00016E770477047C0468446101C62468C4653
:10DCF000191C634600E0C0461FB500F045FF002830
:10DD000001D40021C8421FBD10B500F099FE404269
:10DD1000013010BD10B500F037FF002801DB0020F6
:10DD200010BD012010BDC04610B500F02DFF002829
:10DD300001DD002010BD012010BDC04610B500F06F
:10DD4000BFFE002801DC002010BD012010BDC04630
:10DD500010B500F0B5FE002801DA002010BD01204A
:10DD600010BDC046F0B54F464646C0B41604360C4A
:10DD70009946330005042C0C070C150C63437E43B5
:10DD80006F4365431C0CAD1964199C46A64203D928
:10DD900080235B02984647446346250CEF191D0417
:10DDA0004B464A4343432D0C240464199918C9195E
:10DDB00020000CBC90469946F0BDC046F8B55646CA
:10DDC0005F464D464446F0B40F00FD0FAA460903D6
:10DDD0007C002E005F00450F490A7F0D2943C500D6
:10DDE0001803BC46400A570F640DDB0F3843D200BE
:10DDF0009A4500D1AAE06646A61B002E00DCFFE093
:10DE00006346002B39D10300134300D0D9E06B07E0
:10DE100009D00F232B40042B05D02B1DAB42AD4165
:10DE20006D4249191D000B0200D482E0CA4B013437
:10DE30009C4200D1FEE00A005646C84BED081A404D
:10DE40005007640552020543120B640D00211203B2
:10DE50000B0D1B056405120B1A436308C04CF60733
:10DE600014401C43640064083443280021003CBC77
:10DE700090469946A246AB46F8BDB74B9C42C6D0E9
:10DE800080231B041843382E00DDEBE01F2E00DD3D
:10DE90001EE120239B1B9C4603006746BB4098461F
:10DEA00013004746F3403B436746BA40571EBA410A
:10DEB00013430200F240EB1A9D42B6411D008A1A3C
:10DEC0007642911B0B0231D54A02560A002E00D130
:10DED000B4E0300001F0CCFD0300083B1F2B00DD57
:10DEE000B5E020222900D21AD1409E400A009D4070
:10DEF00032439C4200DDB1E01C1B631C1F2B00DD84
:10DF0000D5E0202114002800C91A8C40D8408D404B
:10DF10000443DA40681E854111002543002476E75A
:10DF20004146314300D134E2310045466B0700D011
:10DF30006FE756464807ED08C9080543864B9C42E3
:10DF400035D00A036405120B640D7FE76346E31ABC
:10DF50009B46002B00DC8BE06746002F3CD07E4FB9
:10DF6000BC4200D153E780273F0438435B46382B3F
:10DF700000DCF7E00243501E82410020D2B2531968
:10DF80004218AB4289411D00494289180B02CDD588
:10DF9000714B01349C4200D13DE101206F4A6B0876
:10DFA0000A4028401843D507054351082FE72B00A6
:10DFB0000B4300D1CBE180231B030B431A03120B4D
:10DFC00044E7013E002E6DD1AE1AB5429B41091ABD
:10DFD0005B42C91A350075E70700174300D116E701
:10DFE00001235B429C46E3445B46002B00D0E0E00B
:10DFF000AA18AA429B4109185B4259181500C5E7A7
:10E00000002E75D1661C7605760D012E00DCF3E03E
:10E01000AE1AB0464545BF410E1A7F42F61B370285
:10E0200000D48FE0551BAA42B641411A76428E1B9E
:10E030009A464BE756460022002507E7280001F0E4
:10E0400017FD20300300083B1F2B00DC49E72A00A6
:10E050002838824000259C4200DC4DE73F49E41A05
:10E060001140D4E60243501E8241D3B2002222E77F
:10E07000002B00D0F3E0631C9C465B055B0D012B7D
:10E0800000DC9FE0344B9C4500D1C3E0AA1809187E
:10E09000AA42804140424118CD0752081543490821
:10E0A0006446B4E62C4B9C4200D0ECE6AFE611008F
:10E0B0001F3CE1400C00202B00D17FE04021CB1A17
:10E0C0009A4015436A1E95410021254300242DE7FF
:10E0D00033000700203BDF403B00202E70D040275C
:10E0E000BE1BB0400243501E824113430022E2E6B1
:10E0F000002C4FD0184CA44500D1ABE08024240460
:10E1000076422143382E00DDDFE01F2E00DD43E1A3
:10E110002027BC1BA1460C004F46BC40A0462C004B
:10E120004746F4403C434F46BD406F1EBD41F14061
:10E130002C43151BAA429241411A5242891A644645
:10E140009A46BFE641464546314300D0BEE600262A
:10E1500000240025F2E6C046FF070000FFFF7FFF16
:10E16000FFFF0F801F2B59DC2027FF1ABC4607003A
:10E1700063469F405B46B9461700DF40B8464F46AE
:10E1800043461F4363469A40531E9A415B463A43B7
:10E19000D840F4E60C002C435CD0F643002E55D159
:10E1A000551BAA42A441411A6442091B9A4664467F
:10E1B00088E6964FBC4200D0D8E628E6002280E7E9
:10E1C00000208FE70B002B43002C00D0C2E0002B77
:10E1D00000D101E10300134300D118E6AB18AB42B4
:10E1E000B6410918764271180A0200D409E1884A3A
:10E1F0001D00114064460AE6002C5BD10E002E4340
:10E2000000D08AE00100114300D1C2E001001500F6
:10E210009A46FCE56446002100258FE620235B42F8
:10E220009C46DC4463460700DF405B46BC46202B2F
:10E2300000D1ACE040235F46DB1B98400243501EF8
:10E240008241634613431A00002098E66F4CA445B0
:10E2500000D057E70100150064469A46D7E5002C28
:10E2600039D10C002C436ED0DB43002B1AD0674C05
:10E27000A44568D0382B00DDA4E01F2B00DDAEE004
:10E2800020240F00E41AA740B9462F00DF40B8460B
:10E29000A3464F46444627435C46A5406C1EA54115
:10E2A000D9403D43AD1895429B4109185B4259182E
:10E2B00064466BE60C002C4315D1010011437BD062
:10E2C000010015009A46514CA1E50D43691E8D4190
:10E2D0000021ECB22DE74D4CA44534D08024240419
:10E2E0005B422143C6E7040014434ED0ED084C07BF
:10E2F0002C438025C9082D03294208D0C6082E4288
:10E3000005D1D208410711430C009A463100620F33
:10E31000C900E50011433D4C79E50600164300D1E4
:10E3200075E5AE1AB0464545BF410E1A7F42F61B51
:10E33000370200D4F4E5551BAA42B641411A764291
:10E34000891B9A4663E50100150064465FE50022DB
:10E3500000257BE5002B3BD00300134315D0ED08CF
:10E360004B072B438025C9082D03294207D0C40839
:10E370002C4204D141070B002100D2081343C900ED
:10E380005A0F1143DD00214C41E5204C3FE50020B0
:10E3900054E700260025D1E534000F00203CE7407B
:10E3A0003C00202E2BD04027BE1BB1400D43691EE0
:10E3B0008D4100212C43BCE6802100260903134C2B
:10E3C0000025BBE50D43691E8D410021EDB269E7D3
:10E3D000010015000D4C1AE50100150017E51C00A1
:10E3E0000F00203CE7403C00202B0CD04027FB1ABC
:10E3F00099400D43691E8D410021254352E70021BC
:10E40000D4E71D0092E50021F3E7C046FF070000B6
:10E41000FFFF7FFFF0B556464D4644465F46F0B4D9
:10E420001D000E034C00CB0F87B0070092468146BB
:10E43000360B640D98466AD06D4B9C4235D08022D5
:10E44000430F12041343F6001E43C3009946694B61
:10E4500000279C460023644402932B0368001B0B97
:10E46000ED0F51469B46400D009500D178E0604B82
:10E4700098426CD05B46DA004B0F802109040B43B5
:10E4800013439B465346D9005A4B9C460023604495
:10E490004246201A6A40924601901F430F2F00D92E
:10E4A000B0E05548BF00C0598746374300D088E0E8
:10E4B000002399460233082700260293CDE74346FE
:10E4C000B34649460093029B009A9246022B00D025
:10E4D000BFE1002153460122002689461A40444BE1
:10E4E000002136030C0D2405360B2643434C1B0537
:10E4F00026401E437600D207760816434846310070
:10E5000007B03CBC90469946A246AB46F0BD3300EE
:10E5100003434FD0002E00D1BCE1300001F0A8FA37
:10E5200003000B3B1C2B00DDADE11D220100D31AC3
:10E5300008393A008F408E40DA40B9461643304BD6
:10E5400000279C46002360444442029385E75346DB
:10E550005A4613432CD1002300219B46023397E7F0
:10E560000B4320D05B46002B00D19EE1584601F0C2
:10E570007FFA03000B3B1C2B00DD8FE102005946A4
:10E58000083A91408B461D21CB1A5146D9400B00C9
:10E5900059460B4351469B469140194B9C4660445B
:10E5A0004042002374E7002300219B4601336FE7BC
:10E5B00003236DE7002399460133042700260293C5
:10E5C0004BE703230C27029347E70122D51A382D86
:10E5D00000DCB0E153461A400021002300268946A2
:10E5E0007EE700238026994600223603004B77E71A
:10E5F000FF07000001FCFFFFFC290200FFFF0F8066
:10E60000F30300005E4500D972E100D16DE1019B8A
:10E610004D46013B01930023340002935B461E02EA
:10E620000B0E1E430B020393330C994633041B0C51
:10E63000494620000093FFF7E1F9009B3700434370
:10E640000600494620009846FFF75EFA2C0C0904A4
:10E650000C43A04509D9E419731EA74200D95CE117
:10E66000A04500D859E1023EE4194346E41A494660
:10E670002000FFF7C3F90300009A80465343494640
:10E6800020009B46FFF740FA2A040904120C0A43B3
:10E6900093450DD94346D219013B974200D93AE13F
:10E6A000934500D837E102235B429C46D219E044EF
:10E6B0005B46D21A4346360433439B460399180CF3
:10E6C0000B0C1D00059309045B46090C0C001B0490
:10E6D0001B0C4443049159436B4368431B190D0CB5
:10E6E000EB189C4203D980246402A44660441C0CAD
:10E6F00009041B04090C20185D18824200D2DEE0D8
:10E7000000D1D7E0161A029B9C465D1BAC459B418D
:10E710005B42F61AB74200D106E149463000FFF7E6
:10E720006DF9009B04004343494630009846FFF7CB
:10E73000EBF92E0C09040E43B04509D9F619631EF6
:10E74000B74200D9F3E0B04500D8F0E0023CF6193A
:10E750004346F31A494618000293FFF74FF9009B0E
:10E7600006004343494602989846FFF7CDF92D0429
:10E7700009042D0C0D43A84509D9ED19731EAF42AC
:10E7800000D9D6E0A84500D8D3E0023EED19240414
:10E79000210043463143049E059A3000ED1A0B04D4
:10E7A0000C0C1B0C58436643534354439A19030CF7
:10E7B0009B189E4203D980225202944664441A0C4C
:10E7C00000041B04000C14191B18A54250D34DD093
:10E7D00001231943964A019B94466344002B00DCB5
:10E7E000F3E64A0709D00F220A40042A05D00A1D81
:10E7F0008A42894149428B4411005A46D20108D5C8
:10E800005A468C4B1A4093468022D2009446019B74
:10E810006344894A934200DD5BE65A46C9085007C3
:10E8200008435602514601225B058146360B5B0DBB
:10E830000A4055E680231B031E4211D05A461A4255
:10E840000ED15E461E433603360B2A0089467B4BAB
:10E8500046E6032B00D1E1E0012BBBD11A40BBE619
:10E860001E433603360B4246744B39E6002BB1D0BB
:10E870007D194A1EAF4252D91100A542A8D1039A70
:10E880009A42A5D1A6E703003E00283B9E40002304
:10E89000994654E601F0ECF8203041E60300524678
:10E8A000283B9A400021934677E6504601F0E0F875
:10E8B00020305EE6029B0026AB4200D323E7039E96
:10E8C0000299B44661448846B045B6415B467642FB
:10E8D000F619B218013B0291974213D290424FD8D9
:10E8E00000D18EE0161A9B460DE7894500D28EE6D0
:10E8F00074084B46F60735005B081D434B46DB07A3
:10E9000002938BE69742EDD10399029CA142E5D98F
:10E910003E1A9B46F7E69846CAE61E00A5E6AC42BC
:10E920003ED874D0110053E70121494252E71C0040
:10E930000EE71E002BE71F2D3CDC20230A00584663
:10E940005B1B9840EA4099400243481E81415E4665
:10E950001143EE404B0709D00F230B40042B05D089
:10E960000B00191D99429B415B42F61833023CD5BE
:10E970005346012200211A40002601238946AFE5B3
:10E9800002235B429C46039CE344A446029B6344EF
:10E990009846A045B6417642F6190293B218B1E600
:10E9A00003988A1E41008142B6417642F619AD199C
:10E9B000039161E71F225242D31A5A46DA401300EC
:10E9C000202D29D040225846551BA8400143481EFF
:10E9D000814107200B4318400026002809D00F2250
:10E9E00000261A401900042ABBD10B0070077602DA
:10E9F000360BDB0803439946012253461A40002395
:10EA00006EE502998D42BBD89B4600267BE60398B3
:10EA10009842C5D3110032E70020D7E780265B4635
:10EA200036031E433603360B009A8946034B57E5DF
:10EA3000FF030000FFFFFFFEFE070000FF070000CE
:10EA4000F0B55F4656464D464446F0B41F035C00A1
:10EA5000DB0F9A46194B0E034D00C90F8046360B4B
:10EA60006D0D8B4691463F0B640D9D4219D0134BA3
:10EA70009C421BD00123A54206D018003CBC904606
:10EA80009946A246AB46F0BDBE42F6D1C845F4D188
:10EA9000D34510D0002DF0D1304303005A1E9341CE
:10EAA000EBE7310001230143E7D1E0E73A430123DB
:10EAB000002AE2D1DEE70023DFE7C046FF070000BF
:10EAC000F0B55F46444656464D46F0B41F033C0B36
:10EAD0002C4F0E034D00A3465C008446360B6D0D93
:10EAE000C90F9046640DDB0FBD422BD0254FBC42B1
:10EAF0002ED0002D0ED13043070081467842784158
:10EB0000002C17D15F463A4314D14B460020002B0E
:10EB10000AD006E0002C02D15846024301D09942A7
:10EB20001AD00123484218433CBC90469946A2465D
:10EB3000AB46F0BD0028F2D0584258410122404275
:10EB40001043F1E737000743D0D002204042EBE703
:10EB50005F461743CDD0F8E7A542E2DC05DB5E4512
:10EB6000DFD808D000205E45DED24842484101236C
:10EB700040421843D8E7C445D3D80020C445F4D355
:10EB8000D2E7C046FF070000F0B55F464D46444659
:10EB90005646F0B41C03240BA4462F4C0F034D0023
:10EBA0005E00C90F80463F0B6D0D8B469146760D7A
:10EBB000DB0FA54220D0284CA64222D0002D12D136
:10EBC000384344424441002E20D0002C0DD05C42FA
:10EBD000634101245B421C4320003CBC90469946A3
:10EBE000A246AB46F0BD002E17D05B4519D05B4660
:10EBF0005C4201231C43EFE7390002240143EBD1BF
:10EC0000D9E7614602241143E6D1D7E761460A43BA
:10EC1000DBD100240028DFD0E9E761460A43E4D1D4
:10EC2000E5E7B54203DD01225C421443D4E7B54277
:10EC3000CDDB6745DBD809D000246745CCD25946E7
:10EC40004C426141012449420C43C5E7C845CED836
:10EC50000024C845F3D3BFE7FF070000F0B55F46C7
:10EC600056464D464446F0B40D0399464E002B0BD4
:10EC700087B00700924680469B46760DCC0F002E4B
:10EC800069D06D4B9E4235D05B468022DD00120478
:10EC9000430F13432B439B46C3009846674B002703
:10ECA0009C460023664401934A4615035000D20F48
:10ECB00053462D0B400D914600D176E05E4A9042BE
:10ECC0006CD080225B0F120413435C4AED00944623
:10ECD0001D4353460022DB00604449463618701C31
:10ECE0006140029017430F2F00D9AFE05448BF0096
:10ECF000C759BF465B461F4300D088E000239B46B0
:10ED00009846023308270193CEE74946022A6AD083
:10ED1000032A00D109E2012A00D0BBE11140002200
:10ED2000002300259046CCB200212D030A0D1205C8
:10ED30002D0B1543434A1B0515401D436D00E40789
:10ED40006D0825434046290007B03CBC90469946D3
:10ED5000A246AB46F0BD034352D05B46002B00D128
:10ED60008AE1584600F084FE03000B3B1C2B00DDBB
:10ED70007BE11D22D31A3A0001005D46DA400839D2
:10ED80008D4013008F402B439B46B8462E4B0027E7
:10ED90009C46002360444642019385E752462A433D
:10EDA0002CD100250023022297E752462A4321D086
:10EDB000002D00D154E1280000F05AFE03000B3B67
:10EDC0001C2B00DD46E11D21CB1A51460200D94023
:10EDD0005346083A954093400D431B4A944660447D
:10EDE0004042002279E7012400220C40124B00250A
:10EDF000904699E70025002301226EE703226CE785
:10EE000000239B4698460133042701934CE70323D4
:10EE10000C27019348E700238025984600242D0302
:10EE2000054B81E75D464346019A6FE75D464346E1
:10EE30002100019A6AE7C046FF07000001FCFFFFBE
:10EE40003C2A0200FFFF0F80F30300004246120C31
:10EE500091461A0C9446424617044A461B041B0C62
:10EE60005A43604690464A46424310000392624627
:10EE70001C003F0C7A437C4342440192220C924690
:10EE8000019A5244904506D982468020400280462D
:10EE9000C24450460390100C049048462404240CAD
:10EEA0001204121905922A0C2D042D0C68432C0013
:10EEB000824648467C4350438146200C8046574357
:10EEC00057444744BA4503D9802040028046C14494
:10EED000380C3F04B84648442404240C019004989C
:10EEE000A044404404905846000C8146584604040F
:10EEF000200C8246070048465F434C464343604629
:10EF000060436446834650464443380C8446E418C4
:10EF10006444A34203D980235B029C46E3444846F1
:10EF20003F04230C3F0C2404E419574668436F4305
:10EF300084464D46504655434243380C8146624410
:10EF40004A445B44944503D980204002844665448A
:10EF500003983F04834604983F0C8446E344C3452A
:10EF600080414042824610048446019867448446AA
:10EF70006744A344BC46A345A4419946D444644293
:10EF80008742BF41D4458041E144A04699459B4119
:10EF90007F424042C8440743120CBA18A045A4411E
:10EFA0005F423B0064422343D71843467D19DB0D83
:10EFB0006D021D435B465A02059B1A43531E9A413C
:10EFC0005B46DB0D1A4343465B021343EA0107D558
:10EFD00001225C0813402343EA07029E13436D0895
:10EFE000574AB218002A4BDD580709D00F201840A5
:10EFF000042805D0181D98429B415B42ED18030080
:10F00000E80104D54F4A15408022D200B2184E487C
:10F01000824200DDE7E60124DB08680718436D0241
:10F02000530580462D0B5B0D0C407DE68022594632
:10F030001203114208D0154206D115432D039846FC
:10F040002D0B4C46414B6FE65D4615432D032D0BB2
:10F050003E4B69E603005546283B9D400023BCE635
:10F06000504600F005FD2030A8E60300283B9F40F5
:10F070000023BB46984689E600F0FAFC203073E690
:10F080000124A61A382E07DD00220C40002300259B
:10F09000904649E6029EA3E71F2E20DC20222C008A
:10F0A0001800921BF040944093400443581E834143
:10F0B0001C43F540630709D00F232340042B05D0E0
:10F0C00023001C1D9C4292415242AD182B021FD5B9
:10F0D000012400220C4001230025904624E61F2035
:10F0E0002C004042821AD440202E1CD04022961B75
:10F0F000B5402B43581E8341072023431840002569
:10F10000002809D00F2200251A401C00042AD8D15B
:10F11000230068076D022D0B0124DB08034398468A
:10F120000C40002300E60025E3E7802201241203BF
:10F1300015432D0398462D0B0C40044BF4E5C046B7
:10F14000FF030000FFFFFFFEFE070000FF070000B7
:10F15000F0B557464E464546E0B40E001100F20F9A
:10F160009246C500420F180337037400400A4E0F41
:10F170007F0A3043CF4E17435A00640D520DDB0F08
:10F18000C900B24200D1E5E001267340A61AB44698
:10F19000534500D1AFE0002E00DC0DE1002A3AD14A
:10F1A00003000B4300D0E4E06B0709D00F232B4092
:10F1B000042B05D02B1DAB42AD416D427F191D00C4
:10F1C0003B0200D488E0BB4B01349C4200D110E1EB
:10F1D0003A00B94B51461A4001235007ED0852023C
:10F1E00064050543120B640D0B4000212800120337
:10F1F0000D0D120B64052D0515436208AF4CDB079E
:10F200002C401443640064081C4321001CBC90463D
:10F210009946A246F0BDA74B9C42C5D080231B0453
:10F2200018436346382B00DDFDE01F2B00DD30E185
:10F23000624620239B1A02009A40664690460A00C6
:10F240009940F24046464B1E994132431143634672
:10F250000200DA40691A8D429B410D00BA1A5B42E6
:10F26000D71A3B0235D57A02530A98464346002BFB
:10F2700000D1C4E0404600F0FBFB0300083B1F2B1D
:10F2800000DDC5E020222900D21A4746D1409F4028
:10F290000A009D403A439C4200DDC0E01C1B631CF9
:10F2A0001F2B00DDE4E0202114002800C91AD840FB
:10F2B0008C408D400443DA40681E85411700254389
:10F2C000002471E7424663461A4300D14CE2674688
:10F2D00045466B0700D069E7012351467807ED08E2
:10F2E000FA080B40054373498C4238D01203640579
:10F2F000120B640D79E7002E00DC9AE0002A47D05B
:10F300006C4A944200D14FE78022120410436246B7
:10F31000382A00DC08E10143481E81410022C9B2BD
:10F320004919D219A942BF410D007F42BF183A02C4
:10F3300000D442E15F4A0134944200D14EE1012001
:10F340005D4A69083A4028400843D50705435708F5
:10F350009A4629E706000E4300D017E714E7290074
:10F36000114300D1F9E1802109030A431203120B72
:10F370003BE701235B429846C4446346002B72D1AD
:10F38000691A8D429B413F1A5B42FF1A0D0068E7E4
:10F3900002000A4300D107E7012252429046C444CA
:10F3A0006246002A00D0E6E06918A942B6413F183B
:10F3B0007642F7190D00BAE7002E00D080E0621CFB
:10F3C0005205520D012A00DCF9E06A1A91464D45BA
:10F3D000B6413A1A7642921B9046120200D499E046
:10F3E0004D1BA9428941C71B49427A1A90469A4649
:10F3F0003CE752460123002513400022F5E6280091
:10F4000000F036FB20300300083B1F2B00DC39E7FF
:10F410002A002838824000259C4200DC3EE7264F27
:10F42000E41A1740C0E60143481E81410022C9B2D8
:10F4300010E7002E00D0F1E0621C94465205520DF8
:10F44000012A00DCA0E01B4A944500D1C5E0691800
:10F45000A94292413F185242D2194908D5070D439B
:10F4600057086446A0E6134B9C4200D0D9E69BE6C1
:10F4700011001F3CE1400C00202B00D180E0402116
:10F48000CB1A9A4015436A1E954100272543002454
:10F490001FE763460200203BDA406346202B71D011
:10F4A000402366469B1B98400143481E81411143FF
:10F4B0000022CFE6FF070000FFFF7FFFFFFF0F8066
:10F4C000002C48D0CA4CA24200D1A2E07442A1460E
:10F4D0008024240427434C46382C00DDDBE01F2C1D
:10F4E00000DD44E14E462024A41B3E00A640A24677
:10F4F000B0464C462E00E640B44646466446264397
:10F500005446A5406C1EA54134002C434D46EF40A7
:10F510000D1B28E04A4643464D461A4300D0A5E657
:10F52000002300240025DEE61F2A5ADC664620223E
:10F53000921B060096409146B04662460E00D640A9
:10F54000424616434A4691404A1E91410200604697
:10F550003143C240E4E63C002C435AD0F443A14678
:10F56000002C52D14D1BA9428941C71B49427F1A29
:10F5700014009A4675E69E4A944200D0C7E613E608
:10F5800000227FE700208FE7002C00D0C8E03B007E
:10F590002B4300D10FE103000B4300D104E66918AF
:10F5A000A9429B413F185B42DF193B0200D41AE19C
:10F5B000904B0D001F406446F6E59A4689E63A00F6
:10F5C0002A43002C5CD1002A75D102000A4300D1E5
:10F5D000CAE007000D009A46E6E5644600220025D1
:10F5E00081E662460600203AD6406246B046202AAE
:10F5F00000D1B7E040226646921B9040014342464C
:10F60000481E8141114300228AE6794CA24200D073
:10F6100061E707000D0014009A46C5E5002C41D1B2
:10F620003C002C4378D0F443A146002C20D0704CF1
:10F63000A24271D04C46382C00DDB2E01F2C00DD18
:10F64000BCE02026341BA2463C005646B4404E4641
:10F65000A0462C00F440A446444666463443A446E3
:10F660005446A54064466E1EB54125434C46E740CE
:10F670006D188D4289413F184942CF19140056E652
:10F68000002A2FD102000A4300D184E007000D00B8
:10F690009A46574C88E53D436F1EBD41ECB20027AA
:10F6A0000D1B60E7524CA24236D0744280263604CD
:10F6B000A1463743BEE702000A4300D174E56A1A47
:10F6C00090464545B6413A1A7642921B944612023C
:10F6D00000D4F7E54D1BA9428941C71B49427F1A57
:10F6E0009A4661E502000A433AD0ED087C072C43B4
:10F6F0008025FA082D032A4208D0C7082F4205D1D9
:10F7000045072C003A009A46C9080C43670FD200FF
:10F71000E5001743364C47E507000D00140043E5AC
:10F720003A002A4343D002000A4319D0ED087C076F
:10F730002C438025FA082D032A4207D0C6082E4202
:10F7400004D147073C003200C9080C43D700620FC0
:10F75000E50017439A46264C26E50022002544E59D
:10F76000234C21E5002049E700230025BBE54C465A
:10F770003E00203CE6404C46B446202C31D040248C
:10F780004E46A61BB7403D436C1EA54164462C4324
:10F7900000270D1BE7E6802200231203144C0025EE
:10F7A000A1E53D436F1EBD410027EDB260E70700B4
:10F7B0000D000F4CF8E407000D00F5E44E463C0048
:10F7C000203EF440A0464C46202C0ED040244E460D
:10F7D000A41BA7403D436F1EBD414446002725435F
:10F7E00046E70027CFE70D0073E50027F2E7C046A4
:10F7F000FF070000FFFF7FFF0B0330B5134D1A0B0F
:10F800004B005B0DC90F0024AB4211DD104CA3422D
:10F8100010DC8024640322430E4CE41A1F2C0CDD00
:10F820000D48C31ADA4013005C42002900D11C00C5
:10F83000200030BD094BCC18FAE7E040084CA44644
:10F8400063449A4013000343EEE7C046FE03000002
:10F850001D0400003304000013040000FFFFFF7FBD
:10F86000EDFBFFFF70B5002830D0C317C4185C4013
:10F87000C50F200000F0FCF8174B184A1B1AD21ACB
:10F880001F2A18DD164AD21A9440002224035B0571
:10F89000240B5B0D0021100024030A0D1205240B1C
:10F8A0001443104A1B0514401C436400ED07640810
:10F8B0002C43210070BD210091400A000B21081A41
:10F8C000C4405B052403240B5B0DE3E70025002304
:10F8D00000240022DEE7C0461E04000033040000BE
:10F8E00013040000FFFF0F8070B5051E28D000F044
:10F8F000BFF8154B154A1B1AD21A1F2A16DD2C0009
:10F90000134A0025D21A94405A052403240B520DA1
:10F91000002124030B0D240B1B0523430D4C120562
:10F92000234013435B002800590870BD0B212C00B5
:10F93000081AC440954024035A05240B520DE7E7EA
:10F9400000220024E4E7C0461E0400003304000047
:10F9500013040000FFFF0F804B0070B55E0D0C0319
:10F96000751C640A420F6D052243C90FC4006D0D5A
:10F97000012D2ADD3B4BF318FE2B1ADC002B42DD58
:10F980008001451EA841D2001043620F0243500778
:10F9900004D00F201040042800D004328020C0047E
:10F9A000104021D00133FF2B03D09201520ADBB269
:10F9B00001E0FF2300225202520ADB0513435B00E1
:10F9C000C9075B080B43180070BD002E07D0144315
:10F9D000EFD08020D20080040243FF23D7E72243E8
:10F9E0000023002A03D00522D208FF2B03D05202A5
:10F9F000520ADBB2DFE7002A32D08020C003024384
:10FA00005202520AD7E71800173014DB8020000496
:10FA100002431E20C01A1F280FDC2500124BF318CA
:10FA20009D406E1EB5419A402B0013432200C240F8
:10FA30001A430023ABE70023D5E702256D42EB1AFA
:10FA40001500DD40202809D0084BF3189A401443D4
:10FA5000621E9441220000232A4398E70022F6E721
:10FA60000022A8E780FCFFFF82FCFFFFA2FCFFFF53
:10FA70001C2101231B04984201D3000C10391B0ADE
:10FA8000984201D3000A08391B09984201D30009A2
:10FA9000043902A2105C40187047C04604030202F9
:10FAA0000101010100000000000000000B0010B582
:10FAB0000100180000F022F810BD00007FB51D0005
:10FAC0000A4B06001B68D868002A02D1084C2300A4
:10FAD00001E01300074C0293009133002A0006490D
:10FAE000019400F02FF801F063F8C046E4200020F4
:10FAF000B72A02007C2A0200892A020070B5054C50
:10FB000005001300201E04D00A000220290000E096
:10FB100000BF70BD00000000084B10B50400002BB2
:10FB200002D0002100E000BF054B1868836A002B5B
:10FB300000D09847200002F0D1FCC0460000000031
:10FB4000BC2A02000EB403B5010003AB044804CB89
:10FB50000068019300F024F902B008BC03B0184714
:10FB6000E42000200E4B70B500251E000D4CE41A59
:10FB7000A410A54204D0AB00F35898470135F8E72C
:10FB800002F0AEFC084B00251E00084CE41AA4103D
:10FB9000A54204D0AB00F35898470135F8E770BD93
:10FBA00024210020242100202421002034210020B1
:10FBB00010B5034B0100186800F074F810BDC04682
:10FBC000E420002010B5034B0100186800F024F871
:10FBD00010BDC046E420002030B50024A24208D069
:10FBE000035D651C0C5DA34201D0181B02E02C00D4
:10FBF000F4E7002030BD002310B59A4203D0CC5C5E
:10FC0000C4540133F9E710BD03008218934202D0B7
:10FC100019700133FAE7704730B500293ED0043936
:10FC20000B68002B00DAC9181D4A13681400002B5A
:10FC300002D14B60116031E08B420DD90A688818FF
:10FC4000834203D118685B6882180A604B602160A8
:10FC500024E08A4203D813005A68002AF9D11D68AB
:10FC60005C198C420BD109686918581819608242D6
:10FC700014D110685268411819605A600EE08C4225
:10FC800002D90C23036009E008680C18A24203D1D2
:10FC900014685268201808604A60596030BDC04638
:10FCA00044240020032370B5CD1C9D430835060075
:10FCB0000C2D01D20C2505E0002D03DA0C230020C9
:10FCC000336040E0A942F9D81F4B1C681A0021009C
:10FCD000002913D00B685B1B0DD40B2B02D90B60D2
:10FCE000CC181EE08C4202D1636813601AE04B68A6
:10FCF00063600C0016E00C004968E9E7134C2368C8
:10FD0000002B03D1300000F0D3FD2060290030002B
:10FD100000F0CEFD431CD1D00323C41C9C43A04261
:10FD20000AD12560200007220B30231D9043C31AFF
:10FD300009D05A42E25006E0211A300000F0B8FD26
:10FD4000431CEED1BAE770BD4424002040240020BB
:10FD5000936810B5013B9360002B05DA9469A342C8
:10FD600008DBCBB20A2B05D01368581C1060197041
:10FD7000C8B201E000F050FE10BDF8B506000F005B
:10FD80001400D518AC4208D021783A003000FFF7B3
:10FD9000DFFF0134431CF5D100E00020F8BD000076
:10FDA000F0B59FB006000F0002920593002804D022
:10FDB0008369002B01D101F043FE7F4B9F4201D1AB
:10FDC000776808E07D4B9F4201D1B76803E07C4B28
:10FDD0009F4200D1F768BB891B070AD53B69002BFE
:10FDE00007D0002306AD6B6120336B761033AB7602
:10FDF0003DE03900300000F067FE0028F1D001201E
:10FE00004042D6E0059A111D12680591002A00DAD9
:10FE10007FE00992013423782E2B00D18DE02178E8
:10FE20000322684801F0F6FE002807D0654B2A68D7
:10FE3000C01A4023834013432B6001342178631C94
:10FE4000062261480293297601F0E4FE002800D1E1
:10FE50009DE05E4B002B00D090E00722059B07330E
:10FE60009343083305936B69039A9B186B61029C5B
:10FE70002378002B04D1029BE31A049312D003E0F1
:10FE8000252BF8D00134F3E7049B029A39003000A7
:10FE9000FFF773FF431C00D186E06A69049B944618
:10FEA00063446B612378002B7ED0012200235242F1
:10FEB0006A6002A95432521801342B60EB60AB60C7
:10FEC0001370AB6521780522414801F0A3FE00289C
:10FED00008D03F4B2A68C01A0123834013432B608C
:10FEE0000134EFE72B68DA0604D55322202102A85B
:10FEF000121811701A0704D553222B2102A81218C8
:10FF0000117022782A2A00D17CE7099B00200A215F
:10FF100005E05242EA60022213432B607AE722781E
:10FF2000303A092A04D84B4301349B180120F6E7E4
:10FF3000002800D16FE709936DE763782A2B0AD177
:10FF4000059B02341A1D1B680592002B01DA012360
:10FF50005B42079363E700230A201A0001346B60B9
:10FF600021783039092904D8424301345218012339
:10FF7000F6E7002B00D152E7079250E705AB00935C
:10FF80003A00144B2900300000F0BCF807E005AB44
:10FF900000933A000F4B2900300000F067FB0390FC
:10FFA000039B013300D05EE7BB895B0600D526E7E3
:10FFB0000B981FB0F0BDC046142C0200342C020078
:10FFC000542C0200C62A0200CA2A020005010200BF
:10FFD000C02A02007BFD0100F0B58BB014001D1E8D
:10FFE000129906DA802424061B191D0014002D2303
:10FFF00000E000230B702023149E03229E43462E14
:020000022000DC
:1000000007D03300453B59424B411099013ACB1878
:10001000109309AB049308AB0393139B00920293D4
:10002000109B220001932B0000F050FE0700472E8A
:1000300002D1119BDB072DD5109BFB180793462E91
:1000400014D13B78302B0CD1002200232000290052
:10005000FDF75AFE002804D10123109A9B1A139A27
:100060001360139B079A1B68D31807930022002381
:1000700020002900FDF748FE3022002802D0079B0F
:10008000099307E0099B0799994203D9591C0991E3
:100090001A70F7E73800099B159ADB1B13600BB049
:1000A000F0BDF7B52B2307000C000270861C002959
:1000B00001DA2D234C427B70092C1CDD6B46DD1DC3
:1000C00020000A21FDF70AFE013D30312970200091
:1000D0000A21FDF71DFD041E092CF1DC013D303421
:1000E0002C706B4607333000AB4209D92B780135B1
:1000F00033700136F5E73023E4183370B01C7470A8
:10010000C01BFEBDF0B597B00C000B920C931C9D6C
:10011000060001F029FD036818000E9300F0E4FBCF
:100120000023216814930F90277E2B680722C905AE
:1001300001D59B1800E0073393431A0008322A6068
:100140001A685B68A264E364A06CE16CFDF728FCAC
:10015000012816D1A06CE16C00220023FDF7DAFD26
:10016000002803D023002D2243331A70BC4D472FA3
:1001700000D8BC4D03232268236101339A43130046
:100180000EE0A06CE16CFDF70BFC236800280BD19E
:10019000B54D472F00D8B54D03222261013293435C
:1001A000236000230D9384E080256268ED00511CDC
:1001B00001D107320BE0A06CE16C08900991672F28
:1001C00001D0472F04D1002A00D0C9E1012262608A
:1001D00014AA059213AA039223222B43002523601D
:1001E0000AA9019363685218069502920093049736
:1001F000A26CE36C3000FFF7EFFE20233A0005000D
:100200009A43472A07D1139BDA1C02DB62689342A8
:100210002EDD023FFFB21399652F12D8200001395D
:100220003A0050301391FFF73CFF149A0D90831859
:100230002361012A02DC2268D20730D50133236111
:100240002DE0662F15D16368002909DD2161002B9F
:1002500002D12268D2071ED50133591821611AE054
:10026000002B03D101222168114213D09A1C11E006
:100270006727139B149A934206DB22682361D207F7
:1002800009D50133236106E00121002B01DC491867
:10029000C91A8A182261139BA36500230D93232397
:1002A0000AAA9B181B78002B03D023002D2243336E
:1002B0001A700C9B15AA009321000B9B300000F0D4
:1002C00067F9431C02D1012040425FE122685305D7
:1002D00001D4236967E0652F00D8E3E0A06CE16CEE
:1002E00000220023FDF710FD00282CD00123604AD6
:1002F0000B9930000C9DA847431CE4D0139B149A23
:10030000934208DB2368DB0705D4236800259B079D
:1003100000D51AE11EE10C9D0F9B0E9A0B9930003F
:10032000A8470025431CCED0149B013B9D42ECDA2C
:10033000220001231A320B9930000C9FB847431C4E
:10034000C1D00135F0E7139B002B2EDC0123484A76
:100350000B9930000C9FB847431CB4D0139B002B63
:1003600005D1149B002B02D12368DB07CDD50F9B51
:100370000E9A0B9930000C9FB847431CA3D0002362
:100380000D93139B0D9A5B429A420BDA22000123D4
:100390001A320B9930000C9FB847431C93D00D9B29
:1003A0000133EDE7149B2A00B4E0149AA36D0D927B
:1003B0009A4200DD0D930D9B002B06DC0023109369
:1003C0000D9BDB43DB17119315E00D9B2A000B9966
:1003D00030000C9FB847431CF0D174E72200012382
:1003E0001A320B9930000C9FB847431C00D16AE7C2
:1003F000109B013310930D99119BA26D0B40109926
:10040000D31A9942EADBAB180D93149A139B9342CB
:100410000EDB2368DB070BD4149B139AED189B1A91
:100420000D9AAD1A9D4200DD1D00002D09DC11E082
:100430000F9B0E9A0B9930000C9FB847431CEBD1D1
:1004400041E72B000D9A0B9930000C9FB847431CD5
:1004500000D138E70023EF430D93FB170E9316E00E
:10046000D52A0200D12A0200DD2A0200D92A020080
:10047000FB270200220001231A320B9930000C9F47
:10048000B847431C00D11EE70D9B01330D93139A0F
:10049000149B0E999B1A2A000A409B1A0D9A9A42A5
:1004A000E8DB32E7149B012B02DC01231A4239D02E
:1004B00001232A000B9930000C9FB847431C00D140
:1004C00001E70F9B0E9A0B9930000C9FB847431C15
:1004D00000D1F8E6A06CE16C00220023FDF714FCCB
:1004E000002801D000250EE0149B6A1C013B1AE095
:1004F000220001231A320B9930000C9FB847431C8D
:1005000000D1E0E60135149B013B9D42F0DB220067
:100510000D9B50320B9930000C9DA847431C00D016
:10052000F3E6D0E62A000B9930000C9DA847431C47
:10053000EDD1C8E62200012319320B9930000C9F3F
:10054000B847431C00D1BEE60135E368159A9B1AF3
:100550009D42EFDB159BE068984217DA180015E022
:100560002B430025069514AD059513AD0395232562
:100570000AA96D1823600295019300920497089AC6
:10058000099B3000FFF728FD05003CE617B0F0BDE1
:10059000F7B5170001938A680B6900900C0093422D
:1005A00000DA130022003B6043321278002A01D0A7
:1005B00001333B6023689B0602D53B6802333B60F6
:1005C000062523681D401ED0230043331B785A1E86
:1005D0009341226892061CD53020E11843310870FF
:1005E00021005A1C45310978A21843320233117098
:1005F0000FE022000123193201990098089EB047AC
:10060000431C0ED00135E3683A689B1A9D42F0DB2B
:10061000DAE72200019943320098089DA847431C5D
:1006200002D10120404220E006232068E1683A68B8
:1006300003400025042B03D18D1AEB43DB171D402B
:10064000A3682269934201DD9B1AED180027BD4281
:100650000AD0220001231A3201990098089EB0475F
:10066000431CDED00137F2E70020FEBDF0B58BB0B1
:1006700006920A0043320793059004920A7E0C000A
:10068000109B6E2A00D1ABE011D8632A22D009D882
:10069000002A00D1B5E0582A00D0C5E045310A70E3
:1006A000814A4FE0642A1DD0692A1BD0BCE0732A1E
:1006B00000D1AAE009D86F2A29D0702A00D0B3E06F
:1006C000202209680A43226037E0752A1FD0782A61
:1006D00033D0A9E00E001A684236111D1960136864
:1006E0003370A4E021681A68080606D4490604D5C8
:1006F000111D19600023D55E02E0111D19601568F7
:10070000002D3BDA2D23049A6D42137036E02168E8
:100710001A68080606D4490604D51568111D196023
:10072000ADB202E0111D196015685F4B227E039384
:1007300008276F2A1DD00A271BE0220078214532A6
:1007400011705A4A19680392081D226818600D68D2
:10075000100602D4500600D5ADB2D30702D520232F
:100760001A4322601027002D03D1202322689A43C8
:1007700022602300002243331A7002E00A274A4B0A
:1007800003936368A360002B09DB04222168914373
:100790002160002D05D1049E002B11D07BE0002D9F
:1007A00079D0049E28003900FDF7AEF9039B013E85
:1007B0005B5C280033703900FDF720F9051EF1D18C
:1007C000082F09D12368DB0706D5636822699342A5
:1007D00002DC3023013E3370049B9B1B23612BE022
:1007E00009681A68080607D4490605D5111D19605D
:1007F0001368A28A1A8004E0111D196013686269E7
:100800001A600023049E236116E01A68111D196006
:10081000166800216268300001F0FCF9002801D060
:10082000801B6060636803E026004236327001235B
:1008300023610023049A1370079B09AA00932100E7
:10084000069B0598FFF7A4FE431C02D101204042FD
:1008500027E02369320006990598079DA847431CA5
:10086000F4D0236800259B070FD4099BE0689842C9
:1008700017DA180015E022000123193206990598AD
:10088000079EB047431CE1D00135E368099A9B1AE3
:100890009D42F0DBE9E72600039B42361B7833706C
:1008A0008EE70BB0F0BDC046E12A0200F22A02003A
:1008B000002370B5064C05000800236001F0F8FD28
:1008C000431C03D12368002B00D02B6070BDC046B1
:1008D0004C24002002780B78002A03D0013001312B
:1008E0009A42F7D0D01A70470023C25C0133002A25
:1008F000FBD1581E70470000F0B51E003F4B87B07B
:100900001B680491029317000B00082105901C78C6
:10091000029A5D1C121952780A4001D02B00F6E7AA
:100920002D2C04D19D1C5C780123019304E00192DD
:100930002B2C01D15C789D1C002E02D0102E0AD1E8
:1009400057E0302C53D120222B789343582B49D198
:1009500010266C780235012031004042FDF74EF838
:100960000390012031004042FDF7CEF800238C4671
:100970001800029A121951780422114201D0303C19
:1009800007E00322114017D03432012900D0203271
:10099000A41AA64210DD002B09DB039B984206D85F
:1009A00001D1644503DC70430123201801E00123D9
:1009B0005B422C780135DCE7002B07DA222301208B
:1009C000059A40421360002F09D115E0019A002AD0
:1009D00000D04042002F0FD0049A002B00D06A1E96
:1009E0003A6009E03024002EB5D10826B3E70A2684
:1009F000B1E7302CA7D0AEE707B0F0BDE82000206B
:100A000010B513000A00010002480068FFF774FFE8
:100A100010BDC046E4200020F8B505000F0014000A
:100A2000002804D08369002B01D101F009F8234B81
:100A30009C4201D16C6808E0214B9C4201D1AC681A
:100A400003E0204B9C4200D1EC68A369A360A3891A
:100A50001B070AD52369002B07D023682269FEB241
:100A6000981A636998420FDB08E02100280000F023
:100A70002BF80028F1D0012040421DE02100280081
:100A800000F070FF0028F6D1A3680130013BA3609D
:100A900023685A1C22601F706369984205D0A3899D
:100AA0003000DB0708D50A2E06D12100280000F00F
:100AB00059FF0028DFD13000F8BDC046142C0200D9
:100AC000342C0200542C0200354B70B51D68060012
